{
	"test.sol": {
		"Test": {
			"abi": [
				{
					"inputs": [],
					"stateMutability": "nonpayable",
					"type": "constructor"
				},
				{
					"inputs": [],
					"name": "bookCount",
					"outputs": [
						{
							"internalType": "uint256",
							"name": "",
							"type": "uint256"
						}
					],
					"stateMutability": "view",
					"type": "function"
				},
				{
					"inputs": [
						{
							"internalType": "string",
							"name": "name",
							"type": "string"
						},
						{
							"internalType": "string",
							"name": "description",
							"type": "string"
						},
						{
							"internalType": "uint256",
							"name": "price",
							"type": "uint256"
						}
					],
					"name": "createBook",
					"outputs": [],
					"stateMutability": "nonpayable",
					"type": "function"
				},
				{
					"inputs": [
						{
							"internalType": "uint256",
							"name": "id",
							"type": "uint256"
						}
					],
					"name": "getBook",
					"outputs": [
						{
							"components": [
								{
									"internalType": "uint256",
									"name": "id",
									"type": "uint256"
								},
								{
									"internalType": "string",
									"name": "name",
									"type": "string"
								},
								{
									"internalType": "string",
									"name": "description",
									"type": "string"
								},
								{
									"internalType": "uint256",
									"name": "price",
									"type": "uint256"
								}
							],
							"internalType": "struct Test.StoreString",
							"name": "",
							"type": "tuple"
						}
					],
					"stateMutability": "view",
					"type": "function"
				},
				{
					"inputs": [],
					"name": "getBooks",
					"outputs": [
						{
							"components": [
								{
									"internalType": "uint256",
									"name": "id",
									"type": "uint256"
								},
								{
									"internalType": "string",
									"name": "name",
									"type": "string"
								},
								{
									"internalType": "string",
									"name": "description",
									"type": "string"
								},
								{
									"internalType": "uint256",
									"name": "price",
									"type": "uint256"
								}
							],
							"internalType": "struct Test.StoreString[]",
							"name": "allBooks",
							"type": "tuple[]"
						}
					],
					"stateMutability": "view",
					"type": "function"
				},
				{
					"inputs": [],
					"name": "owner",
					"outputs": [
						{
							"internalType": "address",
							"name": "",
							"type": "address"
						}
					],
					"stateMutability": "view",
					"type": "function"
				}
			],
			"devdoc": {
				"kind": "dev",
				"methods": {},
				"version": 1
			},
			"evm": {
				"assembly": "    /* \"test.sol\":57:1261  contract Test {... */\n  mstore(0x40, 0x80)\n    /* \"test.sol\":134:183  constructor() {... */\n  callvalue\n  dup1\n  iszero\n  tag_1\n  jumpi\n  0x00\n  dup1\n  revert\ntag_1:\n  pop\n    /* \"test.sol\":166:176  msg.sender */\n  caller\n    /* \"test.sol\":158:163  owner */\n  0x00\n  dup1\n    /* \"test.sol\":158:176  owner = msg.sender */\n  0x0100\n  exp\n  dup2\n  sload\n  dup2\n  0xffffffffffffffffffffffffffffffffffffffff\n  mul\n  not\n  and\n  swap1\n  dup4\n  0xffffffffffffffffffffffffffffffffffffffff\n  and\n  mul\n  or\n  swap1\n  sstore\n  pop\n    /* \"test.sol\":57:1261  contract Test {... */\n  dataSize(sub_0)\n  dup1\n  dataOffset(sub_0)\n  0x00\n  codecopy\n  0x00\n  return\nstop\n\nsub_0: assembly {\n        /* \"test.sol\":57:1261  contract Test {... */\n      mstore(0x40, 0x80)\n      callvalue\n      dup1\n      iszero\n      tag_1\n      jumpi\n      0x00\n      dup1\n      revert\n    tag_1:\n      pop\n      jumpi(tag_2, lt(calldatasize, 0x04))\n      shr(0xe0, calldataload(0x00))\n      dup1\n      0x8da5cb5b\n      eq\n      tag_3\n      jumpi\n      dup1\n      0x9f349789\n      eq\n      tag_4\n      jumpi\n      dup1\n      0xb905ad78\n      eq\n      tag_5\n      jumpi\n      dup1\n      0xce9d915a\n      eq\n      tag_6\n      jumpi\n      dup1\n      0xe0ff5b8b\n      eq\n      tag_7\n      jumpi\n    tag_2:\n      0x00\n      dup1\n      revert\n        /* \"test.sol\":77:97  address public owner */\n    tag_3:\n      tag_8\n      tag_9\n      jump\t// in\n    tag_8:\n      mload(0x40)\n      tag_10\n      swap2\n      swap1\n      tag_11\n      jump\t// in\n    tag_10:\n      mload(0x40)\n      dup1\n      swap2\n      sub\n      swap1\n      return\n        /* \"test.sol\":891:1150  function getBooks() public view returns (StoreString[] memory allBooks) {... */\n    tag_4:\n      tag_12\n      tag_13\n      jump\t// in\n    tag_12:\n      mload(0x40)\n      tag_14\n      swap2\n      swap1\n      tag_15\n      jump\t// in\n    tag_14:\n      mload(0x40)\n      dup1\n      swap2\n      sub\n      swap1\n      return\n        /* \"test.sol\":103:127  uint256 public bookCount */\n    tag_5:\n      tag_16\n      tag_17\n      jump\t// in\n    tag_16:\n      mload(0x40)\n      tag_18\n      swap2\n      swap1\n      tag_19\n      jump\t// in\n    tag_18:\n      mload(0x40)\n      dup1\n      swap2\n      sub\n      swap1\n      return\n        /* \"test.sol\":365:885  function createBook(... */\n    tag_6:\n      tag_20\n      0x04\n      dup1\n      calldatasize\n      sub\n      dup2\n      add\n      swap1\n      tag_21\n      swap2\n      swap1\n      tag_22\n      jump\t// in\n    tag_21:\n      tag_23\n      jump\t// in\n    tag_20:\n      stop\n        /* \"test.sol\":1156:1259  function getBook(uint256 id) public view returns (StoreString memory) {... */\n    tag_7:\n      tag_24\n      0x04\n      dup1\n      calldatasize\n      sub\n      dup2\n      add\n      swap1\n      tag_25\n      swap2\n      swap1\n      tag_26\n      jump\t// in\n    tag_25:\n      tag_27\n      jump\t// in\n    tag_24:\n      mload(0x40)\n      tag_28\n      swap2\n      swap1\n      tag_29\n      jump\t// in\n    tag_28:\n      mload(0x40)\n      dup1\n      swap2\n      sub\n      swap1\n      return\n        /* \"test.sol\":77:97  address public owner */\n    tag_9:\n      0x00\n      dup1\n      sload\n      swap1\n      0x0100\n      exp\n      swap1\n      div\n      0xffffffffffffffffffffffffffffffffffffffff\n      and\n      dup2\n      jump\t// out\n        /* \"test.sol\":891:1150  function getBooks() public view returns (StoreString[] memory allBooks) {... */\n    tag_13:\n        /* \"test.sol\":932:961  StoreString[] memory allBooks */\n      0x60\n        /* \"test.sol\":1014:1015  1 */\n      0x01\n        /* \"test.sol\":1002:1011  bookCount */\n      dup1\n      sload\n        /* \"test.sol\":1002:1015  bookCount - 1 */\n      tag_31\n      swap2\n      swap1\n      tag_32\n      jump\t// in\n    tag_31:\n        /* \"test.sol\":984:1016  new StoreString[](bookCount - 1) */\n      0xffffffffffffffff\n      dup2\n      gt\n      iszero\n      tag_33\n      jumpi\n      tag_34\n      tag_35\n      jump\t// in\n    tag_34:\n    tag_33:\n      mload(0x40)\n      swap1\n      dup1\n      dup3\n      mstore\n      dup1\n      0x20\n      mul\n      0x20\n      add\n      dup3\n      add\n      0x40\n      mstore\n      dup1\n      iszero\n      tag_36\n      jumpi\n      dup2\n      0x20\n      add\n    tag_37:\n      tag_38\n      tag_39\n      jump\t// in\n    tag_38:\n      dup2\n      mstore\n      0x20\n      add\n      swap1\n      0x01\n      swap1\n      sub\n      swap1\n      dup2\n      tag_37\n      jumpi\n      swap1\n      pop\n    tag_36:\n      pop\n        /* \"test.sol\":973:1016  allBooks = new StoreString[](bookCount - 1) */\n      swap1\n      pop\n        /* \"test.sol\":1032:1041  uint256 i */\n      0x00\n        /* \"test.sol\":1044:1045  1 */\n      0x01\n        /* \"test.sol\":1032:1045  uint256 i = 1 */\n      swap1\n      pop\n        /* \"test.sol\":1027:1118  for (uint256 i = 1; i < bookCount; i++) {... */\n    tag_40:\n        /* \"test.sol\":1051:1060  bookCount */\n      sload(0x01)\n        /* \"test.sol\":1047:1048  i */\n      dup2\n        /* \"test.sol\":1047:1060  i < bookCount */\n      lt\n        /* \"test.sol\":1027:1118  for (uint256 i = 1; i < bookCount; i++) {... */\n      iszero\n      tag_41\n      jumpi\n        /* \"test.sol\":1099:1104  books */\n      0x02\n        /* \"test.sol\":1099:1107  books[i] */\n      0x00\n        /* \"test.sol\":1105:1106  i */\n      dup3\n        /* \"test.sol\":1099:1107  books[i] */\n      dup2\n      mstore\n      0x20\n      add\n      swap1\n      dup2\n      mstore\n      0x20\n      add\n      0x00\n      keccak256\n        /* \"test.sol\":1081:1107  allBooks[i - 1] = books[i] */\n      mload(0x40)\n      dup1\n      0x80\n      add\n      0x40\n      mstore\n      swap1\n      dup2\n      0x00\n      dup3\n      add\n      sload\n      dup2\n      mstore\n      0x20\n      add\n      0x01\n      dup3\n      add\n      dup1\n      sload\n      tag_43\n      swap1\n      tag_44\n      jump\t// in\n    tag_43:\n      dup1\n      0x1f\n      add\n      0x20\n      dup1\n      swap2\n      div\n      mul\n      0x20\n      add\n      mload(0x40)\n      swap1\n      dup2\n      add\n      0x40\n      mstore\n      dup1\n      swap3\n      swap2\n      swap1\n      dup2\n      dup2\n      mstore\n      0x20\n      add\n      dup3\n      dup1\n      sload\n      tag_45\n      swap1\n      tag_44\n      jump\t// in\n    tag_45:\n      dup1\n      iszero\n      tag_46\n      jumpi\n      dup1\n      0x1f\n      lt\n      tag_47\n      jumpi\n      0x0100\n      dup1\n      dup4\n      sload\n      div\n      mul\n      dup4\n      mstore\n      swap2\n      0x20\n      add\n      swap2\n      jump(tag_46)\n    tag_47:\n      dup3\n      add\n      swap2\n      swap1\n      0x00\n      mstore\n      keccak256(0x00, 0x20)\n      swap1\n    tag_48:\n      dup2\n      sload\n      dup2\n      mstore\n      swap1\n      0x01\n      add\n      swap1\n      0x20\n      add\n      dup1\n      dup4\n      gt\n      tag_48\n      jumpi\n      dup3\n      swap1\n      sub\n      0x1f\n      and\n      dup3\n      add\n      swap2\n    tag_46:\n      pop\n      pop\n      pop\n      pop\n      pop\n      dup2\n      mstore\n      0x20\n      add\n      0x02\n      dup3\n      add\n      dup1\n      sload\n      tag_49\n      swap1\n      tag_44\n      jump\t// in\n    tag_49:\n      dup1\n      0x1f\n      add\n      0x20\n      dup1\n      swap2\n      div\n      mul\n      0x20\n      add\n      mload(0x40)\n      swap1\n      dup2\n      add\n      0x40\n      mstore\n      dup1\n      swap3\n      swap2\n      swap1\n      dup2\n      dup2\n      mstore\n      0x20\n      add\n      dup3\n      dup1\n      sload\n      tag_50\n      swap1\n      tag_44\n      jump\t// in\n    tag_50:\n      dup1\n      iszero\n      tag_51\n      jumpi\n      dup1\n      0x1f\n      lt\n      tag_52\n      jumpi\n      0x0100\n      dup1\n      dup4\n      sload\n      div\n      mul\n      dup4\n      mstore\n      swap2\n      0x20\n      add\n      swap2\n      jump(tag_51)\n    tag_52:\n      dup3\n      add\n      swap2\n      swap1\n      0x00\n      mstore\n      keccak256(0x00, 0x20)\n      swap1\n    tag_53:\n      dup2\n      sload\n      dup2\n      mstore\n      swap1\n      0x01\n      add\n      swap1\n      0x20\n      add\n      dup1\n      dup4\n      gt\n      tag_53\n      jumpi\n      dup3\n      swap1\n      sub\n      0x1f\n      and\n      dup3\n      add\n      swap2\n    tag_51:\n      pop\n      pop\n      pop\n      pop\n      pop\n      dup2\n      mstore\n      0x20\n      add\n      0x03\n      dup3\n      add\n      sload\n      dup2\n      mstore\n      pop\n      pop\n        /* \"test.sol\":1081:1089  allBooks */\n      dup3\n        /* \"test.sol\":1094:1095  1 */\n      0x01\n        /* \"test.sol\":1090:1091  i */\n      dup4\n        /* \"test.sol\":1090:1095  i - 1 */\n      tag_54\n      swap2\n      swap1\n      tag_32\n      jump\t// in\n    tag_54:\n        /* \"test.sol\":1081:1096  allBooks[i - 1] */\n      dup2\n      mload\n      dup2\n      lt\n      tag_55\n      jumpi\n      tag_56\n      tag_57\n      jump\t// in\n    tag_56:\n    tag_55:\n      0x20\n      mul\n      0x20\n      add\n      add\n        /* \"test.sol\":1081:1107  allBooks[i - 1] = books[i] */\n      dup2\n      swap1\n      mstore\n      pop\n        /* \"test.sol\":1062:1065  i++ */\n      dup1\n      dup1\n      tag_58\n      swap1\n      tag_59\n      jump\t// in\n    tag_58:\n      swap2\n      pop\n      pop\n        /* \"test.sol\":1027:1118  for (uint256 i = 1; i < bookCount; i++) {... */\n      jump(tag_40)\n    tag_41:\n      pop\n        /* \"test.sol\":891:1150  function getBooks() public view returns (StoreString[] memory allBooks) {... */\n      swap1\n      jump\t// out\n        /* \"test.sol\":103:127  uint256 public bookCount */\n    tag_17:\n      sload(0x01)\n      dup2\n      jump\t// out\n        /* \"test.sol\":365:885  function createBook(... */\n    tag_23:\n        /* \"test.sol\":523:524  0 */\n      0x00\n        /* \"test.sol\":508:512  name */\n      dup4\n        /* \"test.sol\":502:520  bytes(name).length */\n      mload\n        /* \"test.sol\":502:524  bytes(name).length > 0 */\n      gt\n        /* \"test.sol\":494:549  require(bytes(name).length > 0, \"Name cannot be empty\") */\n      tag_61\n      jumpi\n      mload(0x40)\n      0x08c379a000000000000000000000000000000000000000000000000000000000\n      dup2\n      mstore\n      0x04\n      add\n      tag_62\n      swap1\n      tag_63\n      jump\t// in\n    tag_62:\n      mload(0x40)\n      dup1\n      swap2\n      sub\n      swap1\n      revert\n    tag_61:\n        /* \"test.sol\":595:596  0 */\n      0x00\n        /* \"test.sol\":573:584  description */\n      dup3\n        /* \"test.sol\":567:592  bytes(description).length */\n      mload\n        /* \"test.sol\":567:596  bytes(description).length > 0 */\n      gt\n        /* \"test.sol\":559:628  require(bytes(description).length > 0, \"Description cannot be empty\") */\n      tag_64\n      jumpi\n      mload(0x40)\n      0x08c379a000000000000000000000000000000000000000000000000000000000\n      dup2\n      mstore\n      0x04\n      add\n      tag_65\n      swap1\n      tag_66\n      jump\t// in\n    tag_65:\n      mload(0x40)\n      dup1\n      swap2\n      sub\n      swap1\n      revert\n    tag_64:\n        /* \"test.sol\":654:655  0 */\n      0x00\n        /* \"test.sol\":646:651  price */\n      dup2\n        /* \"test.sol\":646:655  price > 0 */\n      gt\n        /* \"test.sol\":638:688  require(price > 0, \"Price must be greater than 0\") */\n      tag_67\n      jumpi\n      mload(0x40)\n      0x08c379a000000000000000000000000000000000000000000000000000000000\n      dup2\n      mstore\n      0x04\n      add\n      tag_68\n      swap1\n      tag_69\n      jump\t// in\n    tag_68:\n      mload(0x40)\n      dup1\n      swap2\n      sub\n      swap1\n      revert\n    tag_67:\n        /* \"test.sol\":718:856  StoreString({... */\n      mload(0x40)\n      dup1\n      0x80\n      add\n      0x40\n      mstore\n      dup1\n        /* \"test.sol\":748:757  bookCount */\n      sload(0x01)\n        /* \"test.sol\":718:856  StoreString({... */\n      dup2\n      mstore\n      0x20\n      add\n        /* \"test.sol\":777:781  name */\n      dup5\n        /* \"test.sol\":718:856  StoreString({... */\n      dup2\n      mstore\n      0x20\n      add\n        /* \"test.sol\":808:819  description */\n      dup4\n        /* \"test.sol\":718:856  StoreString({... */\n      dup2\n      mstore\n      0x20\n      add\n        /* \"test.sol\":840:845  price */\n      dup3\n        /* \"test.sol\":718:856  StoreString({... */\n      dup2\n      mstore\n      pop\n        /* \"test.sol\":699:704  books */\n      0x02\n        /* \"test.sol\":699:715  books[bookCount] */\n      0x00\n        /* \"test.sol\":705:714  bookCount */\n      sload(0x01)\n        /* \"test.sol\":699:715  books[bookCount] */\n      dup2\n      mstore\n      0x20\n      add\n      swap1\n      dup2\n      mstore\n      0x20\n      add\n      0x00\n      keccak256\n        /* \"test.sol\":699:856  books[bookCount] = StoreString({... */\n      0x00\n      dup3\n      add\n      mload\n      dup2\n      0x00\n      add\n      sstore\n      0x20\n      dup3\n      add\n      mload\n      dup2\n      0x01\n      add\n      swap1\n      dup2\n      tag_70\n      swap2\n      swap1\n      tag_71\n      jump\t// in\n    tag_70:\n      pop\n      0x40\n      dup3\n      add\n      mload\n      dup2\n      0x02\n      add\n      swap1\n      dup2\n      tag_72\n      swap2\n      swap1\n      tag_71\n      jump\t// in\n    tag_72:\n      pop\n      0x60\n      dup3\n      add\n      mload\n      dup2\n      0x03\n      add\n      sstore\n      swap1\n      pop\n      pop\n        /* \"test.sol\":867:876  bookCount */\n      0x01\n      0x00\n        /* \"test.sol\":867:878  bookCount++ */\n      dup2\n      sload\n      dup1\n      swap3\n      swap2\n      swap1\n      tag_73\n      swap1\n      tag_59\n      jump\t// in\n    tag_73:\n      swap2\n      swap1\n      pop\n      sstore\n      pop\n        /* \"test.sol\":365:885  function createBook(... */\n      pop\n      pop\n      pop\n      jump\t// out\n        /* \"test.sol\":1156:1259  function getBook(uint256 id) public view returns (StoreString memory) {... */\n    tag_27:\n        /* \"test.sol\":1206:1224  StoreString memory */\n      tag_74\n      tag_39\n      jump\t// in\n    tag_74:\n        /* \"test.sol\":1243:1248  books */\n      0x02\n        /* \"test.sol\":1243:1252  books[id] */\n      0x00\n        /* \"test.sol\":1249:1251  id */\n      dup4\n        /* \"test.sol\":1243:1252  books[id] */\n      dup2\n      mstore\n      0x20\n      add\n      swap1\n      dup2\n      mstore\n      0x20\n      add\n      0x00\n      keccak256\n        /* \"test.sol\":1236:1252  return books[id] */\n      mload(0x40)\n      dup1\n      0x80\n      add\n      0x40\n      mstore\n      swap1\n      dup2\n      0x00\n      dup3\n      add\n      sload\n      dup2\n      mstore\n      0x20\n      add\n      0x01\n      dup3\n      add\n      dup1\n      sload\n      tag_76\n      swap1\n      tag_44\n      jump\t// in\n    tag_76:\n      dup1\n      0x1f\n      add\n      0x20\n      dup1\n      swap2\n      div\n      mul\n      0x20\n      add\n      mload(0x40)\n      swap1\n      dup2\n      add\n      0x40\n      mstore\n      dup1\n      swap3\n      swap2\n      swap1\n      dup2\n      dup2\n      mstore\n      0x20\n      add\n      dup3\n      dup1\n      sload\n      tag_77\n      swap1\n      tag_44\n      jump\t// in\n    tag_77:\n      dup1\n      iszero\n      tag_78\n      jumpi\n      dup1\n      0x1f\n      lt\n      tag_79\n      jumpi\n      0x0100\n      dup1\n      dup4\n      sload\n      div\n      mul\n      dup4\n      mstore\n      swap2\n      0x20\n      add\n      swap2\n      jump(tag_78)\n    tag_79:\n      dup3\n      add\n      swap2\n      swap1\n      0x00\n      mstore\n      keccak256(0x00, 0x20)\n      swap1\n    tag_80:\n      dup2\n      sload\n      dup2\n      mstore\n      swap1\n      0x01\n      add\n      swap1\n      0x20\n      add\n      dup1\n      dup4\n      gt\n      tag_80\n      jumpi\n      dup3\n      swap1\n      sub\n      0x1f\n      and\n      dup3\n      add\n      swap2\n    tag_78:\n      pop\n      pop\n      pop\n      pop\n      pop\n      dup2\n      mstore\n      0x20\n      add\n      0x02\n      dup3\n      add\n      dup1\n      sload\n      tag_81\n      swap1\n      tag_44\n      jump\t// in\n    tag_81:\n      dup1\n      0x1f\n      add\n      0x20\n      dup1\n      swap2\n      div\n      mul\n      0x20\n      add\n      mload(0x40)\n      swap1\n      dup2\n      add\n      0x40\n      mstore\n      dup1\n      swap3\n      swap2\n      swap1\n      dup2\n      dup2\n      mstore\n      0x20\n      add\n      dup3\n      dup1\n      sload\n      tag_82\n      swap1\n      tag_44\n      jump\t// in\n    tag_82:\n      dup1\n      iszero\n      tag_83\n      jumpi\n      dup1\n      0x1f\n      lt\n      tag_84\n      jumpi\n      0x0100\n      dup1\n      dup4\n      sload\n      div\n      mul\n      dup4\n      mstore\n      swap2\n      0x20\n      add\n      swap2\n      jump(tag_83)\n    tag_84:\n      dup3\n      add\n      swap2\n      swap1\n      0x00\n      mstore\n      keccak256(0x00, 0x20)\n      swap1\n    tag_85:\n      dup2\n      sload\n      dup2\n      mstore\n      swap1\n      0x01\n      add\n      swap1\n      0x20\n      add\n      dup1\n      dup4\n      gt\n      tag_85\n      jumpi\n      dup3\n      swap1\n      sub\n      0x1f\n      and\n      dup3\n      add\n      swap2\n    tag_83:\n      pop\n      pop\n      pop\n      pop\n      pop\n      dup2\n      mstore\n      0x20\n      add\n      0x03\n      dup3\n      add\n      sload\n      dup2\n      mstore\n      pop\n      pop\n      swap1\n      pop\n        /* \"test.sol\":1156:1259  function getBook(uint256 id) public view returns (StoreString memory) {... */\n      swap2\n      swap1\n      pop\n      jump\t// out\n    tag_39:\n      mload(0x40)\n      dup1\n      0x80\n      add\n      0x40\n      mstore\n      dup1\n      0x00\n      dup2\n      mstore\n      0x20\n      add\n      0x60\n      dup2\n      mstore\n      0x20\n      add\n      0x60\n      dup2\n      mstore\n      0x20\n      add\n      0x00\n      dup2\n      mstore\n      pop\n      swap1\n      jump\t// out\n        /* \"#utility.yul\":7:133   */\n    tag_86:\n        /* \"#utility.yul\":44:51   */\n      0x00\n        /* \"#utility.yul\":84:126   */\n      0xffffffffffffffffffffffffffffffffffffffff\n        /* \"#utility.yul\":77:82   */\n      dup3\n        /* \"#utility.yul\":73:127   */\n      and\n        /* \"#utility.yul\":62:127   */\n      swap1\n      pop\n        /* \"#utility.yul\":7:133   */\n      swap2\n      swap1\n      pop\n      jump\t// out\n        /* \"#utility.yul\":139:235   */\n    tag_87:\n        /* \"#utility.yul\":176:183   */\n      0x00\n        /* \"#utility.yul\":205:229   */\n      tag_145\n        /* \"#utility.yul\":223:228   */\n      dup3\n        /* \"#utility.yul\":205:229   */\n      tag_86\n      jump\t// in\n    tag_145:\n        /* \"#utility.yul\":194:229   */\n      swap1\n      pop\n        /* \"#utility.yul\":139:235   */\n      swap2\n      swap1\n      pop\n      jump\t// out\n        /* \"#utility.yul\":241:359   */\n    tag_88:\n        /* \"#utility.yul\":328:352   */\n      tag_147\n        /* \"#utility.yul\":346:351   */\n      dup2\n        /* \"#utility.yul\":328:352   */\n      tag_87\n      jump\t// in\n    tag_147:\n        /* \"#utility.yul\":323:326   */\n      dup3\n        /* \"#utility.yul\":316:353   */\n      mstore\n        /* \"#utility.yul\":241:359   */\n      pop\n      pop\n      jump\t// out\n        /* \"#utility.yul\":365:587   */\n    tag_11:\n        /* \"#utility.yul\":458:462   */\n      0x00\n        /* \"#utility.yul\":496:498   */\n      0x20\n        /* \"#utility.yul\":485:494   */\n      dup3\n        /* \"#utility.yul\":481:499   */\n      add\n        /* \"#utility.yul\":473:499   */\n      swap1\n      pop\n        /* \"#utility.yul\":509:580   */\n      tag_149\n        /* \"#utility.yul\":577:578   */\n      0x00\n        /* \"#utility.yul\":566:575   */\n      dup4\n        /* \"#utility.yul\":562:579   */\n      add\n        /* \"#utility.yul\":553:559   */\n      dup5\n        /* \"#utility.yul\":509:580   */\n      tag_88\n      jump\t// in\n    tag_149:\n        /* \"#utility.yul\":365:587   */\n      swap3\n      swap2\n      pop\n      pop\n      jump\t// out\n        /* \"#utility.yul\":593:734   */\n    tag_89:\n        /* \"#utility.yul\":687:693   */\n      0x00\n        /* \"#utility.yul\":721:726   */\n      dup2\n        /* \"#utility.yul\":715:727   */\n      mload\n        /* \"#utility.yul\":705:727   */\n      swap1\n      pop\n        /* \"#utility.yul\":593:734   */\n      swap2\n      swap1\n      pop\n      jump\t// out\n        /* \"#utility.yul\":740:951   */\n    tag_90:\n        /* \"#utility.yul\":866:877   */\n      0x00\n        /* \"#utility.yul\":900:906   */\n      dup3\n        /* \"#utility.yul\":895:898   */\n      dup3\n        /* \"#utility.yul\":888:907   */\n      mstore\n        /* \"#utility.yul\":940:944   */\n      0x20\n        /* \"#utility.yul\":935:938   */\n      dup3\n        /* \"#utility.yul\":931:945   */\n      add\n        /* \"#utility.yul\":916:945   */\n      swap1\n      pop\n        /* \"#utility.yul\":740:951   */\n      swap3\n      swap2\n      pop\n      pop\n      jump\t// out\n        /* \"#utility.yul\":957:1116   */\n    tag_91:\n        /* \"#utility.yul\":1051:1055   */\n      0x00\n        /* \"#utility.yul\":1074:1077   */\n      dup2\n        /* \"#utility.yul\":1066:1077   */\n      swap1\n      pop\n        /* \"#utility.yul\":1104:1108   */\n      0x20\n        /* \"#utility.yul\":1099:1102   */\n      dup3\n        /* \"#utility.yul\":1095:1109   */\n      add\n        /* \"#utility.yul\":1087:1109   */\n      swap1\n      pop\n        /* \"#utility.yul\":957:1116   */\n      swap2\n      swap1\n      pop\n      jump\t// out\n        /* \"#utility.yul\":1122:1199   */\n    tag_92:\n        /* \"#utility.yul\":1159:1166   */\n      0x00\n        /* \"#utility.yul\":1188:1193   */\n      dup2\n        /* \"#utility.yul\":1177:1193   */\n      swap1\n      pop\n        /* \"#utility.yul\":1122:1199   */\n      swap2\n      swap1\n      pop\n      jump\t// out\n        /* \"#utility.yul\":1205:1313   */\n    tag_93:\n        /* \"#utility.yul\":1282:1306   */\n      tag_155\n        /* \"#utility.yul\":1300:1305   */\n      dup2\n        /* \"#utility.yul\":1282:1306   */\n      tag_92\n      jump\t// in\n    tag_155:\n        /* \"#utility.yul\":1277:1280   */\n      dup3\n        /* \"#utility.yul\":1270:1307   */\n      mstore\n        /* \"#utility.yul\":1205:1313   */\n      pop\n      pop\n      jump\t// out\n        /* \"#utility.yul\":1319:1418   */\n    tag_94:\n        /* \"#utility.yul\":1371:1377   */\n      0x00\n        /* \"#utility.yul\":1405:1410   */\n      dup2\n        /* \"#utility.yul\":1399:1411   */\n      mload\n        /* \"#utility.yul\":1389:1411   */\n      swap1\n      pop\n        /* \"#utility.yul\":1319:1418   */\n      swap2\n      swap1\n      pop\n      jump\t// out\n        /* \"#utility.yul\":1424:1583   */\n    tag_95:\n        /* \"#utility.yul\":1498:1509   */\n      0x00\n        /* \"#utility.yul\":1532:1538   */\n      dup3\n        /* \"#utility.yul\":1527:1530   */\n      dup3\n        /* \"#utility.yul\":1520:1539   */\n      mstore\n        /* \"#utility.yul\":1572:1576   */\n      0x20\n        /* \"#utility.yul\":1567:1570   */\n      dup3\n        /* \"#utility.yul\":1563:1577   */\n      add\n        /* \"#utility.yul\":1548:1577   */\n      swap1\n      pop\n        /* \"#utility.yul\":1424:1583   */\n      swap3\n      swap2\n      pop\n      pop\n      jump\t// out\n        /* \"#utility.yul\":1589:1835   */\n    tag_96:\n        /* \"#utility.yul\":1670:1671   */\n      0x00\n        /* \"#utility.yul\":1680:1793   */\n    tag_159:\n        /* \"#utility.yul\":1694:1700   */\n      dup4\n        /* \"#utility.yul\":1691:1692   */\n      dup2\n        /* \"#utility.yul\":1688:1701   */\n      lt\n        /* \"#utility.yul\":1680:1793   */\n      iszero\n      tag_161\n      jumpi\n        /* \"#utility.yul\":1779:1780   */\n      dup1\n        /* \"#utility.yul\":1774:1777   */\n      dup3\n        /* \"#utility.yul\":1770:1781   */\n      add\n        /* \"#utility.yul\":1764:1782   */\n      mload\n        /* \"#utility.yul\":1760:1761   */\n      dup2\n        /* \"#utility.yul\":1755:1758   */\n      dup5\n        /* \"#utility.yul\":1751:1762   */\n      add\n        /* \"#utility.yul\":1744:1783   */\n      mstore\n        /* \"#utility.yul\":1716:1718   */\n      0x20\n        /* \"#utility.yul\":1713:1714   */\n      dup2\n        /* \"#utility.yul\":1709:1719   */\n      add\n        /* \"#utility.yul\":1704:1719   */\n      swap1\n      pop\n        /* \"#utility.yul\":1680:1793   */\n      jump(tag_159)\n    tag_161:\n        /* \"#utility.yul\":1827:1828   */\n      0x00\n        /* \"#utility.yul\":1818:1824   */\n      dup5\n        /* \"#utility.yul\":1813:1816   */\n      dup5\n        /* \"#utility.yul\":1809:1825   */\n      add\n        /* \"#utility.yul\":1802:1829   */\n      mstore\n        /* \"#utility.yul\":1651:1835   */\n      pop\n        /* \"#utility.yul\":1589:1835   */\n      pop\n      pop\n      pop\n      jump\t// out\n        /* \"#utility.yul\":1841:1943   */\n    tag_97:\n        /* \"#utility.yul\":1882:1888   */\n      0x00\n        /* \"#utility.yul\":1933:1935   */\n      0x1f\n        /* \"#utility.yul\":1929:1936   */\n      not\n        /* \"#utility.yul\":1924:1926   */\n      0x1f\n        /* \"#utility.yul\":1917:1922   */\n      dup4\n        /* \"#utility.yul\":1913:1927   */\n      add\n        /* \"#utility.yul\":1909:1937   */\n      and\n        /* \"#utility.yul\":1899:1937   */\n      swap1\n      pop\n        /* \"#utility.yul\":1841:1943   */\n      swap2\n      swap1\n      pop\n      jump\t// out\n        /* \"#utility.yul\":1949:2306   */\n    tag_98:\n        /* \"#utility.yul\":2027:2030   */\n      0x00\n        /* \"#utility.yul\":2055:2094   */\n      tag_164\n        /* \"#utility.yul\":2088:2093   */\n      dup3\n        /* \"#utility.yul\":2055:2094   */\n      tag_94\n      jump\t// in\n    tag_164:\n        /* \"#utility.yul\":2110:2171   */\n      tag_165\n        /* \"#utility.yul\":2164:2170   */\n      dup2\n        /* \"#utility.yul\":2159:2162   */\n      dup6\n        /* \"#utility.yul\":2110:2171   */\n      tag_95\n      jump\t// in\n    tag_165:\n        /* \"#utility.yul\":2103:2171   */\n      swap4\n      pop\n        /* \"#utility.yul\":2180:2245   */\n      tag_166\n        /* \"#utility.yul\":2238:2244   */\n      dup2\n        /* \"#utility.yul\":2233:2236   */\n      dup6\n        /* \"#utility.yul\":2226:2230   */\n      0x20\n        /* \"#utility.yul\":2219:2224   */\n      dup7\n        /* \"#utility.yul\":2215:2231   */\n      add\n        /* \"#utility.yul\":2180:2245   */\n      tag_96\n      jump\t// in\n    tag_166:\n        /* \"#utility.yul\":2270:2299   */\n      tag_167\n        /* \"#utility.yul\":2292:2298   */\n      dup2\n        /* \"#utility.yul\":2270:2299   */\n      tag_97\n      jump\t// in\n    tag_167:\n        /* \"#utility.yul\":2265:2268   */\n      dup5\n        /* \"#utility.yul\":2261:2300   */\n      add\n        /* \"#utility.yul\":2254:2300   */\n      swap2\n      pop\n        /* \"#utility.yul\":2031:2306   */\n      pop\n        /* \"#utility.yul\":1949:2306   */\n      swap3\n      swap2\n      pop\n      pop\n      jump\t// out\n        /* \"#utility.yul\":2370:3395   */\n    tag_99:\n        /* \"#utility.yul\":2483:2486   */\n      0x00\n        /* \"#utility.yul\":2519:2523   */\n      0x80\n        /* \"#utility.yul\":2514:2517   */\n      dup4\n        /* \"#utility.yul\":2510:2524   */\n      add\n        /* \"#utility.yul\":2604:2608   */\n      0x00\n        /* \"#utility.yul\":2597:2602   */\n      dup4\n        /* \"#utility.yul\":2593:2609   */\n      add\n        /* \"#utility.yul\":2587:2610   */\n      mload\n        /* \"#utility.yul\":2623:2686   */\n      tag_169\n        /* \"#utility.yul\":2680:2684   */\n      0x00\n        /* \"#utility.yul\":2675:2678   */\n      dup7\n        /* \"#utility.yul\":2671:2685   */\n      add\n        /* \"#utility.yul\":2657:2669   */\n      dup3\n        /* \"#utility.yul\":2623:2686   */\n      tag_93\n      jump\t// in\n    tag_169:\n        /* \"#utility.yul\":2534:2696   */\n      pop\n        /* \"#utility.yul\":2778:2782   */\n      0x20\n        /* \"#utility.yul\":2771:2776   */\n      dup4\n        /* \"#utility.yul\":2767:2783   */\n      add\n        /* \"#utility.yul\":2761:2784   */\n      mload\n        /* \"#utility.yul\":2831:2834   */\n      dup5\n        /* \"#utility.yul\":2825:2829   */\n      dup3\n        /* \"#utility.yul\":2821:2835   */\n      sub\n        /* \"#utility.yul\":2814:2818   */\n      0x20\n        /* \"#utility.yul\":2809:2812   */\n      dup7\n        /* \"#utility.yul\":2805:2819   */\n      add\n        /* \"#utility.yul\":2798:2836   */\n      mstore\n        /* \"#utility.yul\":2857:2930   */\n      tag_170\n        /* \"#utility.yul\":2925:2929   */\n      dup3\n        /* \"#utility.yul\":2911:2923   */\n      dup3\n        /* \"#utility.yul\":2857:2930   */\n      tag_98\n      jump\t// in\n    tag_170:\n        /* \"#utility.yul\":2849:2930   */\n      swap2\n      pop\n        /* \"#utility.yul\":2706:2941   */\n      pop\n        /* \"#utility.yul\":3030:3034   */\n      0x40\n        /* \"#utility.yul\":3023:3028   */\n      dup4\n        /* \"#utility.yul\":3019:3035   */\n      add\n        /* \"#utility.yul\":3013:3036   */\n      mload\n        /* \"#utility.yul\":3083:3086   */\n      dup5\n        /* \"#utility.yul\":3077:3081   */\n      dup3\n        /* \"#utility.yul\":3073:3087   */\n      sub\n        /* \"#utility.yul\":3066:3070   */\n      0x40\n        /* \"#utility.yul\":3061:3064   */\n      dup7\n        /* \"#utility.yul\":3057:3071   */\n      add\n        /* \"#utility.yul\":3050:3088   */\n      mstore\n        /* \"#utility.yul\":3109:3182   */\n      tag_171\n        /* \"#utility.yul\":3177:3181   */\n      dup3\n        /* \"#utility.yul\":3163:3175   */\n      dup3\n        /* \"#utility.yul\":3109:3182   */\n      tag_98\n      jump\t// in\n    tag_171:\n        /* \"#utility.yul\":3101:3182   */\n      swap2\n      pop\n        /* \"#utility.yul\":2951:3193   */\n      pop\n        /* \"#utility.yul\":3276:3280   */\n      0x60\n        /* \"#utility.yul\":3269:3274   */\n      dup4\n        /* \"#utility.yul\":3265:3281   */\n      add\n        /* \"#utility.yul\":3259:3282   */\n      mload\n        /* \"#utility.yul\":3295:3358   */\n      tag_172\n        /* \"#utility.yul\":3352:3356   */\n      0x60\n        /* \"#utility.yul\":3347:3350   */\n      dup7\n        /* \"#utility.yul\":3343:3357   */\n      add\n        /* \"#utility.yul\":3329:3341   */\n      dup3\n        /* \"#utility.yul\":3295:3358   */\n      tag_93\n      jump\t// in\n    tag_172:\n        /* \"#utility.yul\":3203:3368   */\n      pop\n        /* \"#utility.yul\":3385:3389   */\n      dup1\n        /* \"#utility.yul\":3378:3389   */\n      swap2\n      pop\n        /* \"#utility.yul\":2488:3395   */\n      pop\n        /* \"#utility.yul\":2370:3395   */\n      swap3\n      swap2\n      pop\n      pop\n      jump\t// out\n        /* \"#utility.yul\":3401:3665   */\n    tag_100:\n        /* \"#utility.yul\":3524:3534   */\n      0x00\n        /* \"#utility.yul\":3559:3659   */\n      tag_174\n        /* \"#utility.yul\":3655:3658   */\n      dup4\n        /* \"#utility.yul\":3647:3653   */\n      dup4\n        /* \"#utility.yul\":3559:3659   */\n      tag_99\n      jump\t// in\n    tag_174:\n        /* \"#utility.yul\":3545:3659   */\n      swap1\n      pop\n        /* \"#utility.yul\":3401:3665   */\n      swap3\n      swap2\n      pop\n      pop\n      jump\t// out\n        /* \"#utility.yul\":3671:3811   */\n    tag_101:\n        /* \"#utility.yul\":3768:3772   */\n      0x00\n        /* \"#utility.yul\":3800:3804   */\n      0x20\n        /* \"#utility.yul\":3795:3798   */\n      dup3\n        /* \"#utility.yul\":3791:3805   */\n      add\n        /* \"#utility.yul\":3783:3805   */\n      swap1\n      pop\n        /* \"#utility.yul\":3671:3811   */\n      swap2\n      swap1\n      pop\n      jump\t// out\n        /* \"#utility.yul\":3879:5006   */\n    tag_102:\n        /* \"#utility.yul\":4052:4055   */\n      0x00\n        /* \"#utility.yul\":4081:4162   */\n      tag_177\n        /* \"#utility.yul\":4156:4161   */\n      dup3\n        /* \"#utility.yul\":4081:4162   */\n      tag_89\n      jump\t// in\n    tag_177:\n        /* \"#utility.yul\":4178:4291   */\n      tag_178\n        /* \"#utility.yul\":4284:4290   */\n      dup2\n        /* \"#utility.yul\":4279:4282   */\n      dup6\n        /* \"#utility.yul\":4178:4291   */\n      tag_90\n      jump\t// in\n    tag_178:\n        /* \"#utility.yul\":4171:4291   */\n      swap4\n      pop\n        /* \"#utility.yul\":4317:4320   */\n      dup4\n        /* \"#utility.yul\":4362:4366   */\n      0x20\n        /* \"#utility.yul\":4354:4360   */\n      dup3\n        /* \"#utility.yul\":4350:4367   */\n      mul\n        /* \"#utility.yul\":4345:4348   */\n      dup6\n        /* \"#utility.yul\":4341:4368   */\n      add\n        /* \"#utility.yul\":4392:4475   */\n      tag_179\n        /* \"#utility.yul\":4469:4474   */\n      dup6\n        /* \"#utility.yul\":4392:4475   */\n      tag_91\n      jump\t// in\n    tag_179:\n        /* \"#utility.yul\":4498:4505   */\n      dup1\n        /* \"#utility.yul\":4529:4530   */\n      0x00\n        /* \"#utility.yul\":4514:4961   */\n    tag_180:\n        /* \"#utility.yul\":4539:4545   */\n      dup6\n        /* \"#utility.yul\":4536:4537   */\n      dup2\n        /* \"#utility.yul\":4533:4546   */\n      lt\n        /* \"#utility.yul\":4514:4961   */\n      iszero\n      tag_182\n      jumpi\n        /* \"#utility.yul\":4610:4619   */\n      dup5\n        /* \"#utility.yul\":4604:4608   */\n      dup5\n        /* \"#utility.yul\":4600:4620   */\n      sub\n        /* \"#utility.yul\":4595:4598   */\n      dup10\n        /* \"#utility.yul\":4588:4621   */\n      mstore\n        /* \"#utility.yul\":4661:4667   */\n      dup2\n        /* \"#utility.yul\":4655:4668   */\n      mload\n        /* \"#utility.yul\":4689:4807   */\n      tag_183\n        /* \"#utility.yul\":4802:4806   */\n      dup6\n        /* \"#utility.yul\":4787:4800   */\n      dup3\n        /* \"#utility.yul\":4689:4807   */\n      tag_100\n      jump\t// in\n    tag_183:\n        /* \"#utility.yul\":4681:4807   */\n      swap5\n      pop\n        /* \"#utility.yul\":4830:4917   */\n      tag_184\n        /* \"#utility.yul\":4910:4916   */\n      dup4\n        /* \"#utility.yul\":4830:4917   */\n      tag_101\n      jump\t// in\n    tag_184:\n        /* \"#utility.yul\":4820:4917   */\n      swap3\n      pop\n        /* \"#utility.yul\":4946:4950   */\n      0x20\n        /* \"#utility.yul\":4941:4944   */\n      dup11\n        /* \"#utility.yul\":4937:4951   */\n      add\n        /* \"#utility.yul\":4930:4951   */\n      swap10\n      pop\n        /* \"#utility.yul\":4574:4961   */\n      pop\n        /* \"#utility.yul\":4561:4562   */\n      0x01\n        /* \"#utility.yul\":4558:4559   */\n      dup2\n        /* \"#utility.yul\":4554:4563   */\n      add\n        /* \"#utility.yul\":4549:4563   */\n      swap1\n      pop\n        /* \"#utility.yul\":4514:4961   */\n      jump(tag_180)\n    tag_182:\n        /* \"#utility.yul\":4518:4532   */\n      pop\n        /* \"#utility.yul\":4977:4981   */\n      dup3\n        /* \"#utility.yul\":4970:4981   */\n      swap8\n      pop\n        /* \"#utility.yul\":4997:5000   */\n      dup8\n        /* \"#utility.yul\":4990:5000   */\n      swap6\n      pop\n        /* \"#utility.yul\":4057:5006   */\n      pop\n      pop\n      pop\n      pop\n      pop\n        /* \"#utility.yul\":3879:5006   */\n      swap3\n      swap2\n      pop\n      pop\n      jump\t// out\n        /* \"#utility.yul\":5012:5493   */\n    tag_15:\n        /* \"#utility.yul\":5209:5213   */\n      0x00\n        /* \"#utility.yul\":5247:5249   */\n      0x20\n        /* \"#utility.yul\":5236:5245   */\n      dup3\n        /* \"#utility.yul\":5232:5250   */\n      add\n        /* \"#utility.yul\":5224:5250   */\n      swap1\n      pop\n        /* \"#utility.yul\":5296:5305   */\n      dup2\n        /* \"#utility.yul\":5290:5294   */\n      dup2\n        /* \"#utility.yul\":5286:5306   */\n      sub\n        /* \"#utility.yul\":5282:5283   */\n      0x00\n        /* \"#utility.yul\":5271:5280   */\n      dup4\n        /* \"#utility.yul\":5267:5284   */\n      add\n        /* \"#utility.yul\":5260:5307   */\n      mstore\n        /* \"#utility.yul\":5324:5486   */\n      tag_186\n        /* \"#utility.yul\":5481:5485   */\n      dup2\n        /* \"#utility.yul\":5472:5478   */\n      dup5\n        /* \"#utility.yul\":5324:5486   */\n      tag_102\n      jump\t// in\n    tag_186:\n        /* \"#utility.yul\":5316:5486   */\n      swap1\n      pop\n        /* \"#utility.yul\":5012:5493   */\n      swap3\n      swap2\n      pop\n      pop\n      jump\t// out\n        /* \"#utility.yul\":5499:5617   */\n    tag_103:\n        /* \"#utility.yul\":5586:5610   */\n      tag_188\n        /* \"#utility.yul\":5604:5609   */\n      dup2\n        /* \"#utility.yul\":5586:5610   */\n      tag_92\n      jump\t// in\n    tag_188:\n        /* \"#utility.yul\":5581:5584   */\n      dup3\n        /* \"#utility.yul\":5574:5611   */\n      mstore\n        /* \"#utility.yul\":5499:5617   */\n      pop\n      pop\n      jump\t// out\n        /* \"#utility.yul\":5623:5845   */\n    tag_19:\n        /* \"#utility.yul\":5716:5720   */\n      0x00\n        /* \"#utility.yul\":5754:5756   */\n      0x20\n        /* \"#utility.yul\":5743:5752   */\n      dup3\n        /* \"#utility.yul\":5739:5757   */\n      add\n        /* \"#utility.yul\":5731:5757   */\n      swap1\n      pop\n        /* \"#utility.yul\":5767:5838   */\n      tag_190\n        /* \"#utility.yul\":5835:5836   */\n      0x00\n        /* \"#utility.yul\":5824:5833   */\n      dup4\n        /* \"#utility.yul\":5820:5837   */\n      add\n        /* \"#utility.yul\":5811:5817   */\n      dup5\n        /* \"#utility.yul\":5767:5838   */\n      tag_103\n      jump\t// in\n    tag_190:\n        /* \"#utility.yul\":5623:5845   */\n      swap3\n      swap2\n      pop\n      pop\n      jump\t// out\n        /* \"#utility.yul\":5851:5926   */\n    tag_104:\n        /* \"#utility.yul\":5884:5890   */\n      0x00\n        /* \"#utility.yul\":5917:5919   */\n      0x40\n        /* \"#utility.yul\":5911:5920   */\n      mload\n        /* \"#utility.yul\":5901:5920   */\n      swap1\n      pop\n        /* \"#utility.yul\":5851:5926   */\n      swap1\n      jump\t// out\n        /* \"#utility.yul\":5932:6049   */\n    tag_105:\n        /* \"#utility.yul\":6041:6042   */\n      0x00\n        /* \"#utility.yul\":6038:6039   */\n      dup1\n        /* \"#utility.yul\":6031:6043   */\n      revert\n        /* \"#utility.yul\":6055:6172   */\n    tag_106:\n        /* \"#utility.yul\":6164:6165   */\n      0x00\n        /* \"#utility.yul\":6161:6162   */\n      dup1\n        /* \"#utility.yul\":6154:6166   */\n      revert\n        /* \"#utility.yul\":6178:6295   */\n    tag_107:\n        /* \"#utility.yul\":6287:6288   */\n      0x00\n        /* \"#utility.yul\":6284:6285   */\n      dup1\n        /* \"#utility.yul\":6277:6289   */\n      revert\n        /* \"#utility.yul\":6301:6418   */\n    tag_108:\n        /* \"#utility.yul\":6410:6411   */\n      0x00\n        /* \"#utility.yul\":6407:6408   */\n      dup1\n        /* \"#utility.yul\":6400:6412   */\n      revert\n        /* \"#utility.yul\":6424:6604   */\n    tag_35:\n        /* \"#utility.yul\":6472:6549   */\n      0x4e487b7100000000000000000000000000000000000000000000000000000000\n        /* \"#utility.yul\":6469:6470   */\n      0x00\n        /* \"#utility.yul\":6462:6550   */\n      mstore\n        /* \"#utility.yul\":6569:6573   */\n      0x41\n        /* \"#utility.yul\":6566:6567   */\n      0x04\n        /* \"#utility.yul\":6559:6574   */\n      mstore\n        /* \"#utility.yul\":6593:6597   */\n      0x24\n        /* \"#utility.yul\":6590:6591   */\n      0x00\n        /* \"#utility.yul\":6583:6598   */\n      revert\n        /* \"#utility.yul\":6610:6891   */\n    tag_109:\n        /* \"#utility.yul\":6693:6720   */\n      tag_198\n        /* \"#utility.yul\":6715:6719   */\n      dup3\n        /* \"#utility.yul\":6693:6720   */\n      tag_97\n      jump\t// in\n    tag_198:\n        /* \"#utility.yul\":6685:6691   */\n      dup2\n        /* \"#utility.yul\":6681:6721   */\n      add\n        /* \"#utility.yul\":6823:6829   */\n      dup2\n        /* \"#utility.yul\":6811:6821   */\n      dup2\n        /* \"#utility.yul\":6808:6830   */\n      lt\n        /* \"#utility.yul\":6787:6805   */\n      0xffffffffffffffff\n        /* \"#utility.yul\":6775:6785   */\n      dup3\n        /* \"#utility.yul\":6772:6806   */\n      gt\n        /* \"#utility.yul\":6769:6831   */\n      or\n        /* \"#utility.yul\":6766:6854   */\n      iszero\n      tag_199\n      jumpi\n        /* \"#utility.yul\":6834:6852   */\n      tag_200\n      tag_35\n      jump\t// in\n    tag_200:\n        /* \"#utility.yul\":6766:6854   */\n    tag_199:\n        /* \"#utility.yul\":6874:6884   */\n      dup1\n        /* \"#utility.yul\":6870:6872   */\n      0x40\n        /* \"#utility.yul\":6863:6885   */\n      mstore\n        /* \"#utility.yul\":6653:6891   */\n      pop\n        /* \"#utility.yul\":6610:6891   */\n      pop\n      pop\n      jump\t// out\n        /* \"#utility.yul\":6897:7026   */\n    tag_110:\n        /* \"#utility.yul\":6931:6937   */\n      0x00\n        /* \"#utility.yul\":6958:6978   */\n      tag_202\n      tag_104\n      jump\t// in\n    tag_202:\n        /* \"#utility.yul\":6948:6978   */\n      swap1\n      pop\n        /* \"#utility.yul\":6987:7020   */\n      tag_203\n        /* \"#utility.yul\":7015:7019   */\n      dup3\n        /* \"#utility.yul\":7007:7013   */\n      dup3\n        /* \"#utility.yul\":6987:7020   */\n      tag_109\n      jump\t// in\n    tag_203:\n        /* \"#utility.yul\":6897:7026   */\n      swap2\n      swap1\n      pop\n      jump\t// out\n        /* \"#utility.yul\":7032:7340   */\n    tag_111:\n        /* \"#utility.yul\":7094:7098   */\n      0x00\n        /* \"#utility.yul\":7184:7202   */\n      0xffffffffffffffff\n        /* \"#utility.yul\":7176:7182   */\n      dup3\n        /* \"#utility.yul\":7173:7203   */\n      gt\n        /* \"#utility.yul\":7170:7226   */\n      iszero\n      tag_205\n      jumpi\n        /* \"#utility.yul\":7206:7224   */\n      tag_206\n      tag_35\n      jump\t// in\n    tag_206:\n        /* \"#utility.yul\":7170:7226   */\n    tag_205:\n        /* \"#utility.yul\":7244:7273   */\n      tag_207\n        /* \"#utility.yul\":7266:7272   */\n      dup3\n        /* \"#utility.yul\":7244:7273   */\n      tag_97\n      jump\t// in\n    tag_207:\n        /* \"#utility.yul\":7236:7273   */\n      swap1\n      pop\n        /* \"#utility.yul\":7328:7332   */\n      0x20\n        /* \"#utility.yul\":7322:7326   */\n      dup2\n        /* \"#utility.yul\":7318:7333   */\n      add\n        /* \"#utility.yul\":7310:7333   */\n      swap1\n      pop\n        /* \"#utility.yul\":7032:7340   */\n      swap2\n      swap1\n      pop\n      jump\t// out\n        /* \"#utility.yul\":7346:7492   */\n    tag_112:\n        /* \"#utility.yul\":7443:7449   */\n      dup3\n        /* \"#utility.yul\":7438:7441   */\n      dup2\n        /* \"#utility.yul\":7433:7436   */\n      dup4\n        /* \"#utility.yul\":7420:7450   */\n      calldatacopy\n        /* \"#utility.yul\":7484:7485   */\n      0x00\n        /* \"#utility.yul\":7475:7481   */\n      dup4\n        /* \"#utility.yul\":7470:7473   */\n      dup4\n        /* \"#utility.yul\":7466:7482   */\n      add\n        /* \"#utility.yul\":7459:7486   */\n      mstore\n        /* \"#utility.yul\":7346:7492   */\n      pop\n      pop\n      pop\n      jump\t// out\n        /* \"#utility.yul\":7498:7923   */\n    tag_113:\n        /* \"#utility.yul\":7576:7581   */\n      0x00\n        /* \"#utility.yul\":7601:7667   */\n      tag_210\n        /* \"#utility.yul\":7617:7666   */\n      tag_211\n        /* \"#utility.yul\":7659:7665   */\n      dup5\n        /* \"#utility.yul\":7617:7666   */\n      tag_111\n      jump\t// in\n    tag_211:\n        /* \"#utility.yul\":7601:7667   */\n      tag_110\n      jump\t// in\n    tag_210:\n        /* \"#utility.yul\":7592:7667   */\n      swap1\n      pop\n        /* \"#utility.yul\":7690:7696   */\n      dup3\n        /* \"#utility.yul\":7683:7688   */\n      dup2\n        /* \"#utility.yul\":7676:7697   */\n      mstore\n        /* \"#utility.yul\":7728:7732   */\n      0x20\n        /* \"#utility.yul\":7721:7726   */\n      dup2\n        /* \"#utility.yul\":7717:7733   */\n      add\n        /* \"#utility.yul\":7766:7769   */\n      dup5\n        /* \"#utility.yul\":7757:7763   */\n      dup5\n        /* \"#utility.yul\":7752:7755   */\n      dup5\n        /* \"#utility.yul\":7748:7764   */\n      add\n        /* \"#utility.yul\":7745:7770   */\n      gt\n        /* \"#utility.yul\":7742:7854   */\n      iszero\n      tag_212\n      jumpi\n        /* \"#utility.yul\":7773:7852   */\n      tag_213\n      tag_108\n      jump\t// in\n    tag_213:\n        /* \"#utility.yul\":7742:7854   */\n    tag_212:\n        /* \"#utility.yul\":7863:7917   */\n      tag_214\n        /* \"#utility.yul\":7910:7916   */\n      dup5\n        /* \"#utility.yul\":7905:7908   */\n      dup3\n        /* \"#utility.yul\":7900:7903   */\n      dup6\n        /* \"#utility.yul\":7863:7917   */\n      tag_112\n      jump\t// in\n    tag_214:\n        /* \"#utility.yul\":7582:7923   */\n      pop\n        /* \"#utility.yul\":7498:7923   */\n      swap4\n      swap3\n      pop\n      pop\n      pop\n      jump\t// out\n        /* \"#utility.yul\":7943:8283   */\n    tag_114:\n        /* \"#utility.yul\":7999:8004   */\n      0x00\n        /* \"#utility.yul\":8048:8051   */\n      dup3\n        /* \"#utility.yul\":8041:8045   */\n      0x1f\n        /* \"#utility.yul\":8033:8039   */\n      dup4\n        /* \"#utility.yul\":8029:8046   */\n      add\n        /* \"#utility.yul\":8025:8052   */\n      slt\n        /* \"#utility.yul\":8015:8137   */\n      tag_216\n      jumpi\n        /* \"#utility.yul\":8056:8135   */\n      tag_217\n      tag_107\n      jump\t// in\n    tag_217:\n        /* \"#utility.yul\":8015:8137   */\n    tag_216:\n        /* \"#utility.yul\":8173:8179   */\n      dup2\n        /* \"#utility.yul\":8160:8180   */\n      calldataload\n        /* \"#utility.yul\":8198:8277   */\n      tag_218\n        /* \"#utility.yul\":8273:8276   */\n      dup5\n        /* \"#utility.yul\":8265:8271   */\n      dup3\n        /* \"#utility.yul\":8258:8262   */\n      0x20\n        /* \"#utility.yul\":8250:8256   */\n      dup7\n        /* \"#utility.yul\":8246:8263   */\n      add\n        /* \"#utility.yul\":8198:8277   */\n      tag_113\n      jump\t// in\n    tag_218:\n        /* \"#utility.yul\":8189:8277   */\n      swap2\n      pop\n        /* \"#utility.yul\":8005:8283   */\n      pop\n        /* \"#utility.yul\":7943:8283   */\n      swap3\n      swap2\n      pop\n      pop\n      jump\t// out\n        /* \"#utility.yul\":8289:8411   */\n    tag_115:\n        /* \"#utility.yul\":8362:8386   */\n      tag_220\n        /* \"#utility.yul\":8380:8385   */\n      dup2\n        /* \"#utility.yul\":8362:8386   */\n      tag_92\n      jump\t// in\n    tag_220:\n        /* \"#utility.yul\":8355:8360   */\n      dup2\n        /* \"#utility.yul\":8352:8387   */\n      eq\n        /* \"#utility.yul\":8342:8405   */\n      tag_221\n      jumpi\n        /* \"#utility.yul\":8401:8402   */\n      0x00\n        /* \"#utility.yul\":8398:8399   */\n      dup1\n        /* \"#utility.yul\":8391:8403   */\n      revert\n        /* \"#utility.yul\":8342:8405   */\n    tag_221:\n        /* \"#utility.yul\":8289:8411   */\n      pop\n      jump\t// out\n        /* \"#utility.yul\":8417:8556   */\n    tag_116:\n        /* \"#utility.yul\":8463:8468   */\n      0x00\n        /* \"#utility.yul\":8501:8507   */\n      dup2\n        /* \"#utility.yul\":8488:8508   */\n      calldataload\n        /* \"#utility.yul\":8479:8508   */\n      swap1\n      pop\n        /* \"#utility.yul\":8517:8550   */\n      tag_223\n        /* \"#utility.yul\":8544:8549   */\n      dup2\n        /* \"#utility.yul\":8517:8550   */\n      tag_115\n      jump\t// in\n    tag_223:\n        /* \"#utility.yul\":8417:8556   */\n      swap3\n      swap2\n      pop\n      pop\n      jump\t// out\n        /* \"#utility.yul\":8562:9541   */\n    tag_22:\n        /* \"#utility.yul\":8659:8665   */\n      0x00\n        /* \"#utility.yul\":8667:8673   */\n      dup1\n        /* \"#utility.yul\":8675:8681   */\n      0x00\n        /* \"#utility.yul\":8724:8726   */\n      0x60\n        /* \"#utility.yul\":8712:8721   */\n      dup5\n        /* \"#utility.yul\":8703:8710   */\n      dup7\n        /* \"#utility.yul\":8699:8722   */\n      sub\n        /* \"#utility.yul\":8695:8727   */\n      slt\n        /* \"#utility.yul\":8692:8811   */\n      iszero\n      tag_225\n      jumpi\n        /* \"#utility.yul\":8730:8809   */\n      tag_226\n      tag_105\n      jump\t// in\n    tag_226:\n        /* \"#utility.yul\":8692:8811   */\n    tag_225:\n        /* \"#utility.yul\":8878:8879   */\n      0x00\n        /* \"#utility.yul\":8867:8876   */\n      dup5\n        /* \"#utility.yul\":8863:8880   */\n      add\n        /* \"#utility.yul\":8850:8881   */\n      calldataload\n        /* \"#utility.yul\":8908:8926   */\n      0xffffffffffffffff\n        /* \"#utility.yul\":8900:8906   */\n      dup2\n        /* \"#utility.yul\":8897:8927   */\n      gt\n        /* \"#utility.yul\":8894:9011   */\n      iszero\n      tag_227\n      jumpi\n        /* \"#utility.yul\":8930:9009   */\n      tag_228\n      tag_106\n      jump\t// in\n    tag_228:\n        /* \"#utility.yul\":8894:9011   */\n    tag_227:\n        /* \"#utility.yul\":9035:9098   */\n      tag_229\n        /* \"#utility.yul\":9090:9097   */\n      dup7\n        /* \"#utility.yul\":9081:9087   */\n      dup3\n        /* \"#utility.yul\":9070:9079   */\n      dup8\n        /* \"#utility.yul\":9066:9088   */\n      add\n        /* \"#utility.yul\":9035:9098   */\n      tag_114\n      jump\t// in\n    tag_229:\n        /* \"#utility.yul\":9025:9098   */\n      swap4\n      pop\n        /* \"#utility.yul\":8821:9108   */\n      pop\n        /* \"#utility.yul\":9175:9177   */\n      0x20\n        /* \"#utility.yul\":9164:9173   */\n      dup5\n        /* \"#utility.yul\":9160:9178   */\n      add\n        /* \"#utility.yul\":9147:9179   */\n      calldataload\n        /* \"#utility.yul\":9206:9224   */\n      0xffffffffffffffff\n        /* \"#utility.yul\":9198:9204   */\n      dup2\n        /* \"#utility.yul\":9195:9225   */\n      gt\n        /* \"#utility.yul\":9192:9309   */\n      iszero\n      tag_230\n      jumpi\n        /* \"#utility.yul\":9228:9307   */\n      tag_231\n      tag_106\n      jump\t// in\n    tag_231:\n        /* \"#utility.yul\":9192:9309   */\n    tag_230:\n        /* \"#utility.yul\":9333:9396   */\n      tag_232\n        /* \"#utility.yul\":9388:9395   */\n      dup7\n        /* \"#utility.yul\":9379:9385   */\n      dup3\n        /* \"#utility.yul\":9368:9377   */\n      dup8\n        /* \"#utility.yul\":9364:9386   */\n      add\n        /* \"#utility.yul\":9333:9396   */\n      tag_114\n      jump\t// in\n    tag_232:\n        /* \"#utility.yul\":9323:9396   */\n      swap3\n      pop\n        /* \"#utility.yul\":9118:9406   */\n      pop\n        /* \"#utility.yul\":9445:9447   */\n      0x40\n        /* \"#utility.yul\":9471:9524   */\n      tag_233\n        /* \"#utility.yul\":9516:9523   */\n      dup7\n        /* \"#utility.yul\":9507:9513   */\n      dup3\n        /* \"#utility.yul\":9496:9505   */\n      dup8\n        /* \"#utility.yul\":9492:9514   */\n      add\n        /* \"#utility.yul\":9471:9524   */\n      tag_116\n      jump\t// in\n    tag_233:\n        /* \"#utility.yul\":9461:9524   */\n      swap2\n      pop\n        /* \"#utility.yul\":9416:9534   */\n      pop\n        /* \"#utility.yul\":8562:9541   */\n      swap3\n      pop\n      swap3\n      pop\n      swap3\n      jump\t// out\n        /* \"#utility.yul\":9547:9876   */\n    tag_26:\n        /* \"#utility.yul\":9606:9612   */\n      0x00\n        /* \"#utility.yul\":9655:9657   */\n      0x20\n        /* \"#utility.yul\":9643:9652   */\n      dup3\n        /* \"#utility.yul\":9634:9641   */\n      dup5\n        /* \"#utility.yul\":9630:9653   */\n      sub\n        /* \"#utility.yul\":9626:9658   */\n      slt\n        /* \"#utility.yul\":9623:9742   */\n      iszero\n      tag_235\n      jumpi\n        /* \"#utility.yul\":9661:9740   */\n      tag_236\n      tag_105\n      jump\t// in\n    tag_236:\n        /* \"#utility.yul\":9623:9742   */\n    tag_235:\n        /* \"#utility.yul\":9781:9782   */\n      0x00\n        /* \"#utility.yul\":9806:9859   */\n      tag_237\n        /* \"#utility.yul\":9851:9858   */\n      dup5\n        /* \"#utility.yul\":9842:9848   */\n      dup3\n        /* \"#utility.yul\":9831:9840   */\n      dup6\n        /* \"#utility.yul\":9827:9849   */\n      add\n        /* \"#utility.yul\":9806:9859   */\n      tag_116\n      jump\t// in\n    tag_237:\n        /* \"#utility.yul\":9796:9859   */\n      swap2\n      pop\n        /* \"#utility.yul\":9752:9869   */\n      pop\n        /* \"#utility.yul\":9547:9876   */\n      swap3\n      swap2\n      pop\n      pop\n      jump\t// out\n        /* \"#utility.yul\":9940:10975   */\n    tag_117:\n        /* \"#utility.yul\":10063:10066   */\n      0x00\n        /* \"#utility.yul\":10099:10103   */\n      0x80\n        /* \"#utility.yul\":10094:10097   */\n      dup4\n        /* \"#utility.yul\":10090:10104   */\n      add\n        /* \"#utility.yul\":10184:10188   */\n      0x00\n        /* \"#utility.yul\":10177:10182   */\n      dup4\n        /* \"#utility.yul\":10173:10189   */\n      add\n        /* \"#utility.yul\":10167:10190   */\n      mload\n        /* \"#utility.yul\":10203:10266   */\n      tag_239\n        /* \"#utility.yul\":10260:10264   */\n      0x00\n        /* \"#utility.yul\":10255:10258   */\n      dup7\n        /* \"#utility.yul\":10251:10265   */\n      add\n        /* \"#utility.yul\":10237:10249   */\n      dup3\n        /* \"#utility.yul\":10203:10266   */\n      tag_93\n      jump\t// in\n    tag_239:\n        /* \"#utility.yul\":10114:10276   */\n      pop\n        /* \"#utility.yul\":10358:10362   */\n      0x20\n        /* \"#utility.yul\":10351:10356   */\n      dup4\n        /* \"#utility.yul\":10347:10363   */\n      add\n        /* \"#utility.yul\":10341:10364   */\n      mload\n        /* \"#utility.yul\":10411:10414   */\n      dup5\n        /* \"#utility.yul\":10405:10409   */\n      dup3\n        /* \"#utility.yul\":10401:10415   */\n      sub\n        /* \"#utility.yul\":10394:10398   */\n      0x20\n        /* \"#utility.yul\":10389:10392   */\n      dup7\n        /* \"#utility.yul\":10385:10399   */\n      add\n        /* \"#utility.yul\":10378:10416   */\n      mstore\n        /* \"#utility.yul\":10437:10510   */\n      tag_240\n        /* \"#utility.yul\":10505:10509   */\n      dup3\n        /* \"#utility.yul\":10491:10503   */\n      dup3\n        /* \"#utility.yul\":10437:10510   */\n      tag_98\n      jump\t// in\n    tag_240:\n        /* \"#utility.yul\":10429:10510   */\n      swap2\n      pop\n        /* \"#utility.yul\":10286:10521   */\n      pop\n        /* \"#utility.yul\":10610:10614   */\n      0x40\n        /* \"#utility.yul\":10603:10608   */\n      dup4\n        /* \"#utility.yul\":10599:10615   */\n      add\n        /* \"#utility.yul\":10593:10616   */\n      mload\n        /* \"#utility.yul\":10663:10666   */\n      dup5\n        /* \"#utility.yul\":10657:10661   */\n      dup3\n        /* \"#utility.yul\":10653:10667   */\n      sub\n        /* \"#utility.yul\":10646:10650   */\n      0x40\n        /* \"#utility.yul\":10641:10644   */\n      dup7\n        /* \"#utility.yul\":10637:10651   */\n      add\n        /* \"#utility.yul\":10630:10668   */\n      mstore\n        /* \"#utility.yul\":10689:10762   */\n      tag_241\n        /* \"#utility.yul\":10757:10761   */\n      dup3\n        /* \"#utility.yul\":10743:10755   */\n      dup3\n        /* \"#utility.yul\":10689:10762   */\n      tag_98\n      jump\t// in\n    tag_241:\n        /* \"#utility.yul\":10681:10762   */\n      swap2\n      pop\n        /* \"#utility.yul\":10531:10773   */\n      pop\n        /* \"#utility.yul\":10856:10860   */\n      0x60\n        /* \"#utility.yul\":10849:10854   */\n      dup4\n        /* \"#utility.yul\":10845:10861   */\n      add\n        /* \"#utility.yul\":10839:10862   */\n      mload\n        /* \"#utility.yul\":10875:10938   */\n      tag_242\n        /* \"#utility.yul\":10932:10936   */\n      0x60\n        /* \"#utility.yul\":10927:10930   */\n      dup7\n        /* \"#utility.yul\":10923:10937   */\n      add\n        /* \"#utility.yul\":10909:10921   */\n      dup3\n        /* \"#utility.yul\":10875:10938   */\n      tag_93\n      jump\t// in\n    tag_242:\n        /* \"#utility.yul\":10783:10948   */\n      pop\n        /* \"#utility.yul\":10965:10969   */\n      dup1\n        /* \"#utility.yul\":10958:10969   */\n      swap2\n      pop\n        /* \"#utility.yul\":10068:10975   */\n      pop\n        /* \"#utility.yul\":9940:10975   */\n      swap3\n      swap2\n      pop\n      pop\n      jump\t// out\n        /* \"#utility.yul\":10981:11362   */\n    tag_29:\n        /* \"#utility.yul\":11128:11132   */\n      0x00\n        /* \"#utility.yul\":11166:11168   */\n      0x20\n        /* \"#utility.yul\":11155:11164   */\n      dup3\n        /* \"#utility.yul\":11151:11169   */\n      add\n        /* \"#utility.yul\":11143:11169   */\n      swap1\n      pop\n        /* \"#utility.yul\":11215:11224   */\n      dup2\n        /* \"#utility.yul\":11209:11213   */\n      dup2\n        /* \"#utility.yul\":11205:11225   */\n      sub\n        /* \"#utility.yul\":11201:11202   */\n      0x00\n        /* \"#utility.yul\":11190:11199   */\n      dup4\n        /* \"#utility.yul\":11186:11203   */\n      add\n        /* \"#utility.yul\":11179:11226   */\n      mstore\n        /* \"#utility.yul\":11243:11355   */\n      tag_244\n        /* \"#utility.yul\":11350:11354   */\n      dup2\n        /* \"#utility.yul\":11341:11347   */\n      dup5\n        /* \"#utility.yul\":11243:11355   */\n      tag_117\n      jump\t// in\n    tag_244:\n        /* \"#utility.yul\":11235:11355   */\n      swap1\n      pop\n        /* \"#utility.yul\":10981:11362   */\n      swap3\n      swap2\n      pop\n      pop\n      jump\t// out\n        /* \"#utility.yul\":11368:11548   */\n    tag_118:\n        /* \"#utility.yul\":11416:11493   */\n      0x4e487b7100000000000000000000000000000000000000000000000000000000\n        /* \"#utility.yul\":11413:11414   */\n      0x00\n        /* \"#utility.yul\":11406:11494   */\n      mstore\n        /* \"#utility.yul\":11513:11517   */\n      0x11\n        /* \"#utility.yul\":11510:11511   */\n      0x04\n        /* \"#utility.yul\":11503:11518   */\n      mstore\n        /* \"#utility.yul\":11537:11541   */\n      0x24\n        /* \"#utility.yul\":11534:11535   */\n      0x00\n        /* \"#utility.yul\":11527:11542   */\n      revert\n        /* \"#utility.yul\":11554:11748   */\n    tag_32:\n        /* \"#utility.yul\":11594:11598   */\n      0x00\n        /* \"#utility.yul\":11614:11634   */\n      tag_247\n        /* \"#utility.yul\":11632:11633   */\n      dup3\n        /* \"#utility.yul\":11614:11634   */\n      tag_92\n      jump\t// in\n    tag_247:\n        /* \"#utility.yul\":11609:11634   */\n      swap2\n      pop\n        /* \"#utility.yul\":11648:11668   */\n      tag_248\n        /* \"#utility.yul\":11666:11667   */\n      dup4\n        /* \"#utility.yul\":11648:11668   */\n      tag_92\n      jump\t// in\n    tag_248:\n        /* \"#utility.yul\":11643:11668   */\n      swap3\n      pop\n        /* \"#utility.yul\":11692:11693   */\n      dup3\n        /* \"#utility.yul\":11689:11690   */\n      dup3\n        /* \"#utility.yul\":11685:11694   */\n      sub\n        /* \"#utility.yul\":11677:11694   */\n      swap1\n      pop\n        /* \"#utility.yul\":11716:11717   */\n      dup2\n        /* \"#utility.yul\":11710:11714   */\n      dup2\n        /* \"#utility.yul\":11707:11718   */\n      gt\n        /* \"#utility.yul\":11704:11741   */\n      iszero\n      tag_249\n      jumpi\n        /* \"#utility.yul\":11721:11739   */\n      tag_250\n      tag_118\n      jump\t// in\n    tag_250:\n        /* \"#utility.yul\":11704:11741   */\n    tag_249:\n        /* \"#utility.yul\":11554:11748   */\n      swap3\n      swap2\n      pop\n      pop\n      jump\t// out\n        /* \"#utility.yul\":11754:11934   */\n    tag_119:\n        /* \"#utility.yul\":11802:11879   */\n      0x4e487b7100000000000000000000000000000000000000000000000000000000\n        /* \"#utility.yul\":11799:11800   */\n      0x00\n        /* \"#utility.yul\":11792:11880   */\n      mstore\n        /* \"#utility.yul\":11899:11903   */\n      0x22\n        /* \"#utility.yul\":11896:11897   */\n      0x04\n        /* \"#utility.yul\":11889:11904   */\n      mstore\n        /* \"#utility.yul\":11923:11927   */\n      0x24\n        /* \"#utility.yul\":11920:11921   */\n      0x00\n        /* \"#utility.yul\":11913:11928   */\n      revert\n        /* \"#utility.yul\":11940:12260   */\n    tag_44:\n        /* \"#utility.yul\":11984:11990   */\n      0x00\n        /* \"#utility.yul\":12021:12022   */\n      0x02\n        /* \"#utility.yul\":12015:12019   */\n      dup3\n        /* \"#utility.yul\":12011:12023   */\n      div\n        /* \"#utility.yul\":12001:12023   */\n      swap1\n      pop\n        /* \"#utility.yul\":12068:12069   */\n      0x01\n        /* \"#utility.yul\":12062:12066   */\n      dup3\n        /* \"#utility.yul\":12058:12070   */\n      and\n        /* \"#utility.yul\":12089:12107   */\n      dup1\n        /* \"#utility.yul\":12079:12160   */\n      tag_253\n      jumpi\n        /* \"#utility.yul\":12145:12149   */\n      0x7f\n        /* \"#utility.yul\":12137:12143   */\n      dup3\n        /* \"#utility.yul\":12133:12150   */\n      and\n        /* \"#utility.yul\":12123:12150   */\n      swap2\n      pop\n        /* \"#utility.yul\":12079:12160   */\n    tag_253:\n        /* \"#utility.yul\":12207:12209   */\n      0x20\n        /* \"#utility.yul\":12199:12205   */\n      dup3\n        /* \"#utility.yul\":12196:12210   */\n      lt\n        /* \"#utility.yul\":12176:12194   */\n      dup2\n        /* \"#utility.yul\":12173:12211   */\n      sub\n        /* \"#utility.yul\":12170:12254   */\n      tag_254\n      jumpi\n        /* \"#utility.yul\":12226:12244   */\n      tag_255\n      tag_119\n      jump\t// in\n    tag_255:\n        /* \"#utility.yul\":12170:12254   */\n    tag_254:\n        /* \"#utility.yul\":11991:12260   */\n      pop\n        /* \"#utility.yul\":11940:12260   */\n      swap2\n      swap1\n      pop\n      jump\t// out\n        /* \"#utility.yul\":12266:12446   */\n    tag_57:\n        /* \"#utility.yul\":12314:12391   */\n      0x4e487b7100000000000000000000000000000000000000000000000000000000\n        /* \"#utility.yul\":12311:12312   */\n      0x00\n        /* \"#utility.yul\":12304:12392   */\n      mstore\n        /* \"#utility.yul\":12411:12415   */\n      0x32\n        /* \"#utility.yul\":12408:12409   */\n      0x04\n        /* \"#utility.yul\":12401:12416   */\n      mstore\n        /* \"#utility.yul\":12435:12439   */\n      0x24\n        /* \"#utility.yul\":12432:12433   */\n      0x00\n        /* \"#utility.yul\":12425:12440   */\n      revert\n        /* \"#utility.yul\":12452:12685   */\n    tag_59:\n        /* \"#utility.yul\":12491:12494   */\n      0x00\n        /* \"#utility.yul\":12514:12538   */\n      tag_258\n        /* \"#utility.yul\":12532:12537   */\n      dup3\n        /* \"#utility.yul\":12514:12538   */\n      tag_92\n      jump\t// in\n    tag_258:\n        /* \"#utility.yul\":12505:12538   */\n      swap2\n      pop\n        /* \"#utility.yul\":12560:12626   */\n      0xffffffffffffffffffffffffffffffffffffffffffffffffffffffffffffffff\n        /* \"#utility.yul\":12553:12558   */\n      dup3\n        /* \"#utility.yul\":12550:12627   */\n      sub\n        /* \"#utility.yul\":12547:12650   */\n      tag_259\n      jumpi\n        /* \"#utility.yul\":12630:12648   */\n      tag_260\n      tag_118\n      jump\t// in\n    tag_260:\n        /* \"#utility.yul\":12547:12650   */\n    tag_259:\n        /* \"#utility.yul\":12677:12678   */\n      0x01\n        /* \"#utility.yul\":12670:12675   */\n      dup3\n        /* \"#utility.yul\":12666:12679   */\n      add\n        /* \"#utility.yul\":12659:12679   */\n      swap1\n      pop\n        /* \"#utility.yul\":12452:12685   */\n      swap2\n      swap1\n      pop\n      jump\t// out\n        /* \"#utility.yul\":12691:12860   */\n    tag_120:\n        /* \"#utility.yul\":12775:12786   */\n      0x00\n        /* \"#utility.yul\":12809:12815   */\n      dup3\n        /* \"#utility.yul\":12804:12807   */\n      dup3\n        /* \"#utility.yul\":12797:12816   */\n      mstore\n        /* \"#utility.yul\":12849:12853   */\n      0x20\n        /* \"#utility.yul\":12844:12847   */\n      dup3\n        /* \"#utility.yul\":12840:12854   */\n      add\n        /* \"#utility.yul\":12825:12854   */\n      swap1\n      pop\n        /* \"#utility.yul\":12691:12860   */\n      swap3\n      swap2\n      pop\n      pop\n      jump\t// out\n        /* \"#utility.yul\":12866:13036   */\n    tag_121:\n        /* \"#utility.yul\":13006:13028   */\n      0x4e616d652063616e6e6f7420626520656d707479000000000000000000000000\n        /* \"#utility.yul\":13002:13003   */\n      0x00\n        /* \"#utility.yul\":12994:13000   */\n      dup3\n        /* \"#utility.yul\":12990:13004   */\n      add\n        /* \"#utility.yul\":12983:13029   */\n      mstore\n        /* \"#utility.yul\":12866:13036   */\n      pop\n      jump\t// out\n        /* \"#utility.yul\":13042:13408   */\n    tag_122:\n        /* \"#utility.yul\":13184:13187   */\n      0x00\n        /* \"#utility.yul\":13205:13272   */\n      tag_264\n        /* \"#utility.yul\":13269:13271   */\n      0x14\n        /* \"#utility.yul\":13264:13267   */\n      dup4\n        /* \"#utility.yul\":13205:13272   */\n      tag_120\n      jump\t// in\n    tag_264:\n        /* \"#utility.yul\":13198:13272   */\n      swap2\n      pop\n        /* \"#utility.yul\":13281:13374   */\n      tag_265\n        /* \"#utility.yul\":13370:13373   */\n      dup3\n        /* \"#utility.yul\":13281:13374   */\n      tag_121\n      jump\t// in\n    tag_265:\n        /* \"#utility.yul\":13399:13401   */\n      0x20\n        /* \"#utility.yul\":13394:13397   */\n      dup3\n        /* \"#utility.yul\":13390:13402   */\n      add\n        /* \"#utility.yul\":13383:13402   */\n      swap1\n      pop\n        /* \"#utility.yul\":13042:13408   */\n      swap2\n      swap1\n      pop\n      jump\t// out\n        /* \"#utility.yul\":13414:13833   */\n    tag_63:\n        /* \"#utility.yul\":13580:13584   */\n      0x00\n        /* \"#utility.yul\":13618:13620   */\n      0x20\n        /* \"#utility.yul\":13607:13616   */\n      dup3\n        /* \"#utility.yul\":13603:13621   */\n      add\n        /* \"#utility.yul\":13595:13621   */\n      swap1\n      pop\n        /* \"#utility.yul\":13667:13676   */\n      dup2\n        /* \"#utility.yul\":13661:13665   */\n      dup2\n        /* \"#utility.yul\":13657:13677   */\n      sub\n        /* \"#utility.yul\":13653:13654   */\n      0x00\n        /* \"#utility.yul\":13642:13651   */\n      dup4\n        /* \"#utility.yul\":13638:13655   */\n      add\n        /* \"#utility.yul\":13631:13678   */\n      mstore\n        /* \"#utility.yul\":13695:13826   */\n      tag_267\n        /* \"#utility.yul\":13821:13825   */\n      dup2\n        /* \"#utility.yul\":13695:13826   */\n      tag_122\n      jump\t// in\n    tag_267:\n        /* \"#utility.yul\":13687:13826   */\n      swap1\n      pop\n        /* \"#utility.yul\":13414:13833   */\n      swap2\n      swap1\n      pop\n      jump\t// out\n        /* \"#utility.yul\":13839:14016   */\n    tag_123:\n        /* \"#utility.yul\":13979:14008   */\n      0x4465736372697074696f6e2063616e6e6f7420626520656d7074790000000000\n        /* \"#utility.yul\":13975:13976   */\n      0x00\n        /* \"#utility.yul\":13967:13973   */\n      dup3\n        /* \"#utility.yul\":13963:13977   */\n      add\n        /* \"#utility.yul\":13956:14009   */\n      mstore\n        /* \"#utility.yul\":13839:14016   */\n      pop\n      jump\t// out\n        /* \"#utility.yul\":14022:14388   */\n    tag_124:\n        /* \"#utility.yul\":14164:14167   */\n      0x00\n        /* \"#utility.yul\":14185:14252   */\n      tag_270\n        /* \"#utility.yul\":14249:14251   */\n      0x1b\n        /* \"#utility.yul\":14244:14247   */\n      dup4\n        /* \"#utility.yul\":14185:14252   */\n      tag_120\n      jump\t// in\n    tag_270:\n        /* \"#utility.yul\":14178:14252   */\n      swap2\n      pop\n        /* \"#utility.yul\":14261:14354   */\n      tag_271\n        /* \"#utility.yul\":14350:14353   */\n      dup3\n        /* \"#utility.yul\":14261:14354   */\n      tag_123\n      jump\t// in\n    tag_271:\n        /* \"#utility.yul\":14379:14381   */\n      0x20\n        /* \"#utility.yul\":14374:14377   */\n      dup3\n        /* \"#utility.yul\":14370:14382   */\n      add\n        /* \"#utility.yul\":14363:14382   */\n      swap1\n      pop\n        /* \"#utility.yul\":14022:14388   */\n      swap2\n      swap1\n      pop\n      jump\t// out\n        /* \"#utility.yul\":14394:14813   */\n    tag_66:\n        /* \"#utility.yul\":14560:14564   */\n      0x00\n        /* \"#utility.yul\":14598:14600   */\n      0x20\n        /* \"#utility.yul\":14587:14596   */\n      dup3\n        /* \"#utility.yul\":14583:14601   */\n      add\n        /* \"#utility.yul\":14575:14601   */\n      swap1\n      pop\n        /* \"#utility.yul\":14647:14656   */\n      dup2\n        /* \"#utility.yul\":14641:14645   */\n      dup2\n        /* \"#utility.yul\":14637:14657   */\n      sub\n        /* \"#utility.yul\":14633:14634   */\n      0x00\n        /* \"#utility.yul\":14622:14631   */\n      dup4\n        /* \"#utility.yul\":14618:14635   */\n      add\n        /* \"#utility.yul\":14611:14658   */\n      mstore\n        /* \"#utility.yul\":14675:14806   */\n      tag_273\n        /* \"#utility.yul\":14801:14805   */\n      dup2\n        /* \"#utility.yul\":14675:14806   */\n      tag_124\n      jump\t// in\n    tag_273:\n        /* \"#utility.yul\":14667:14806   */\n      swap1\n      pop\n        /* \"#utility.yul\":14394:14813   */\n      swap2\n      swap1\n      pop\n      jump\t// out\n        /* \"#utility.yul\":14819:14997   */\n    tag_125:\n        /* \"#utility.yul\":14959:14989   */\n      0x5072696365206d7573742062652067726561746572207468616e203000000000\n        /* \"#utility.yul\":14955:14956   */\n      0x00\n        /* \"#utility.yul\":14947:14953   */\n      dup3\n        /* \"#utility.yul\":14943:14957   */\n      add\n        /* \"#utility.yul\":14936:14990   */\n      mstore\n        /* \"#utility.yul\":14819:14997   */\n      pop\n      jump\t// out\n        /* \"#utility.yul\":15003:15369   */\n    tag_126:\n        /* \"#utility.yul\":15145:15148   */\n      0x00\n        /* \"#utility.yul\":15166:15233   */\n      tag_276\n        /* \"#utility.yul\":15230:15232   */\n      0x1c\n        /* \"#utility.yul\":15225:15228   */\n      dup4\n        /* \"#utility.yul\":15166:15233   */\n      tag_120\n      jump\t// in\n    tag_276:\n        /* \"#utility.yul\":15159:15233   */\n      swap2\n      pop\n        /* \"#utility.yul\":15242:15335   */\n      tag_277\n        /* \"#utility.yul\":15331:15334   */\n      dup3\n        /* \"#utility.yul\":15242:15335   */\n      tag_125\n      jump\t// in\n    tag_277:\n        /* \"#utility.yul\":15360:15362   */\n      0x20\n        /* \"#utility.yul\":15355:15358   */\n      dup3\n        /* \"#utility.yul\":15351:15363   */\n      add\n        /* \"#utility.yul\":15344:15363   */\n      swap1\n      pop\n        /* \"#utility.yul\":15003:15369   */\n      swap2\n      swap1\n      pop\n      jump\t// out\n        /* \"#utility.yul\":15375:15794   */\n    tag_69:\n        /* \"#utility.yul\":15541:15545   */\n      0x00\n        /* \"#utility.yul\":15579:15581   */\n      0x20\n        /* \"#utility.yul\":15568:15577   */\n      dup3\n        /* \"#utility.yul\":15564:15582   */\n      add\n        /* \"#utility.yul\":15556:15582   */\n      swap1\n      pop\n        /* \"#utility.yul\":15628:15637   */\n      dup2\n        /* \"#utility.yul\":15622:15626   */\n      dup2\n        /* \"#utility.yul\":15618:15638   */\n      sub\n        /* \"#utility.yul\":15614:15615   */\n      0x00\n        /* \"#utility.yul\":15603:15612   */\n      dup4\n        /* \"#utility.yul\":15599:15616   */\n      add\n        /* \"#utility.yul\":15592:15639   */\n      mstore\n        /* \"#utility.yul\":15656:15787   */\n      tag_279\n        /* \"#utility.yul\":15782:15786   */\n      dup2\n        /* \"#utility.yul\":15656:15787   */\n      tag_126\n      jump\t// in\n    tag_279:\n        /* \"#utility.yul\":15648:15787   */\n      swap1\n      pop\n        /* \"#utility.yul\":15375:15794   */\n      swap2\n      swap1\n      pop\n      jump\t// out\n        /* \"#utility.yul\":15800:15941   */\n    tag_127:\n        /* \"#utility.yul\":15849:15853   */\n      0x00\n        /* \"#utility.yul\":15872:15875   */\n      dup2\n        /* \"#utility.yul\":15864:15875   */\n      swap1\n      pop\n        /* \"#utility.yul\":15895:15898   */\n      dup2\n        /* \"#utility.yul\":15892:15893   */\n      0x00\n        /* \"#utility.yul\":15885:15899   */\n      mstore\n        /* \"#utility.yul\":15929:15933   */\n      0x20\n        /* \"#utility.yul\":15926:15927   */\n      0x00\n        /* \"#utility.yul\":15916:15934   */\n      keccak256\n        /* \"#utility.yul\":15908:15934   */\n      swap1\n      pop\n        /* \"#utility.yul\":15800:15941   */\n      swap2\n      swap1\n      pop\n      jump\t// out\n        /* \"#utility.yul\":15947:16040   */\n    tag_128:\n        /* \"#utility.yul\":15984:15990   */\n      0x00\n        /* \"#utility.yul\":16031:16033   */\n      0x20\n        /* \"#utility.yul\":16026:16028   */\n      0x1f\n        /* \"#utility.yul\":16019:16024   */\n      dup4\n        /* \"#utility.yul\":16015:16029   */\n      add\n        /* \"#utility.yul\":16011:16034   */\n      div\n        /* \"#utility.yul\":16001:16034   */\n      swap1\n      pop\n        /* \"#utility.yul\":15947:16040   */\n      swap2\n      swap1\n      pop\n      jump\t// out\n        /* \"#utility.yul\":16046:16153   */\n    tag_129:\n        /* \"#utility.yul\":16090:16098   */\n      0x00\n        /* \"#utility.yul\":16140:16145   */\n      dup3\n        /* \"#utility.yul\":16134:16138   */\n      dup3\n        /* \"#utility.yul\":16130:16146   */\n      shl\n        /* \"#utility.yul\":16109:16146   */\n      swap1\n      pop\n        /* \"#utility.yul\":16046:16153   */\n      swap3\n      swap2\n      pop\n      pop\n      jump\t// out\n        /* \"#utility.yul\":16159:16552   */\n    tag_130:\n        /* \"#utility.yul\":16228:16234   */\n      0x00\n        /* \"#utility.yul\":16278:16279   */\n      0x08\n        /* \"#utility.yul\":16266:16276   */\n      dup4\n        /* \"#utility.yul\":16262:16280   */\n      mul\n        /* \"#utility.yul\":16301:16398   */\n      tag_284\n        /* \"#utility.yul\":16331:16397   */\n      0xffffffffffffffffffffffffffffffffffffffffffffffffffffffffffffffff\n        /* \"#utility.yul\":16320:16329   */\n      dup3\n        /* \"#utility.yul\":16301:16398   */\n      tag_129\n      jump\t// in\n    tag_284:\n        /* \"#utility.yul\":16419:16458   */\n      tag_285\n        /* \"#utility.yul\":16449:16457   */\n      dup7\n        /* \"#utility.yul\":16438:16447   */\n      dup4\n        /* \"#utility.yul\":16419:16458   */\n      tag_129\n      jump\t// in\n    tag_285:\n        /* \"#utility.yul\":16407:16458   */\n      swap6\n      pop\n        /* \"#utility.yul\":16491:16495   */\n      dup1\n        /* \"#utility.yul\":16487:16496   */\n      not\n        /* \"#utility.yul\":16480:16485   */\n      dup5\n        /* \"#utility.yul\":16476:16497   */\n      and\n        /* \"#utility.yul\":16467:16497   */\n      swap4\n      pop\n        /* \"#utility.yul\":16540:16544   */\n      dup1\n        /* \"#utility.yul\":16530:16538   */\n      dup7\n        /* \"#utility.yul\":16526:16545   */\n      and\n        /* \"#utility.yul\":16519:16524   */\n      dup5\n        /* \"#utility.yul\":16516:16546   */\n      or\n        /* \"#utility.yul\":16506:16546   */\n      swap3\n      pop\n        /* \"#utility.yul\":16235:16552   */\n      pop\n      pop\n        /* \"#utility.yul\":16159:16552   */\n      swap4\n      swap3\n      pop\n      pop\n      pop\n      jump\t// out\n        /* \"#utility.yul\":16558:16618   */\n    tag_131:\n        /* \"#utility.yul\":16586:16589   */\n      0x00\n        /* \"#utility.yul\":16607:16612   */\n      dup2\n        /* \"#utility.yul\":16600:16612   */\n      swap1\n      pop\n        /* \"#utility.yul\":16558:16618   */\n      swap2\n      swap1\n      pop\n      jump\t// out\n        /* \"#utility.yul\":16624:16766   */\n    tag_132:\n        /* \"#utility.yul\":16674:16683   */\n      0x00\n        /* \"#utility.yul\":16707:16760   */\n      tag_288\n        /* \"#utility.yul\":16725:16759   */\n      tag_289\n        /* \"#utility.yul\":16734:16758   */\n      tag_290\n        /* \"#utility.yul\":16752:16757   */\n      dup5\n        /* \"#utility.yul\":16734:16758   */\n      tag_92\n      jump\t// in\n    tag_290:\n        /* \"#utility.yul\":16725:16759   */\n      tag_131\n      jump\t// in\n    tag_289:\n        /* \"#utility.yul\":16707:16760   */\n      tag_92\n      jump\t// in\n    tag_288:\n        /* \"#utility.yul\":16694:16760   */\n      swap1\n      pop\n        /* \"#utility.yul\":16624:16766   */\n      swap2\n      swap1\n      pop\n      jump\t// out\n        /* \"#utility.yul\":16772:16847   */\n    tag_133:\n        /* \"#utility.yul\":16815:16818   */\n      0x00\n        /* \"#utility.yul\":16836:16841   */\n      dup2\n        /* \"#utility.yul\":16829:16841   */\n      swap1\n      pop\n        /* \"#utility.yul\":16772:16847   */\n      swap2\n      swap1\n      pop\n      jump\t// out\n        /* \"#utility.yul\":16853:17122   */\n    tag_134:\n        /* \"#utility.yul\":16963:17002   */\n      tag_293\n        /* \"#utility.yul\":16994:17001   */\n      dup4\n        /* \"#utility.yul\":16963:17002   */\n      tag_132\n      jump\t// in\n    tag_293:\n        /* \"#utility.yul\":17024:17115   */\n      tag_294\n        /* \"#utility.yul\":17073:17114   */\n      tag_295\n        /* \"#utility.yul\":17097:17113   */\n      dup3\n        /* \"#utility.yul\":17073:17114   */\n      tag_133\n      jump\t// in\n    tag_295:\n        /* \"#utility.yul\":17065:17071   */\n      dup5\n        /* \"#utility.yul\":17058:17062   */\n      dup5\n        /* \"#utility.yul\":17052:17063   */\n      sload\n        /* \"#utility.yul\":17024:17115   */\n      tag_130\n      jump\t// in\n    tag_294:\n        /* \"#utility.yul\":17018:17022   */\n      dup3\n        /* \"#utility.yul\":17011:17116   */\n      sstore\n        /* \"#utility.yul\":16929:17122   */\n      pop\n        /* \"#utility.yul\":16853:17122   */\n      pop\n      pop\n      pop\n      jump\t// out\n        /* \"#utility.yul\":17128:17201   */\n    tag_135:\n        /* \"#utility.yul\":17173:17176   */\n      0x00\n        /* \"#utility.yul\":17128:17201   */\n      swap1\n      jump\t// out\n        /* \"#utility.yul\":17207:17396   */\n    tag_136:\n        /* \"#utility.yul\":17284:17316   */\n      tag_298\n      tag_135\n      jump\t// in\n    tag_298:\n        /* \"#utility.yul\":17325:17390   */\n      tag_299\n        /* \"#utility.yul\":17383:17389   */\n      dup2\n        /* \"#utility.yul\":17375:17381   */\n      dup5\n        /* \"#utility.yul\":17369:17373   */\n      dup5\n        /* \"#utility.yul\":17325:17390   */\n      tag_134\n      jump\t// in\n    tag_299:\n        /* \"#utility.yul\":17260:17396   */\n      pop\n        /* \"#utility.yul\":17207:17396   */\n      pop\n      pop\n      jump\t// out\n        /* \"#utility.yul\":17402:17588   */\n    tag_137:\n        /* \"#utility.yul\":17462:17582   */\n    tag_301:\n        /* \"#utility.yul\":17479:17482   */\n      dup2\n        /* \"#utility.yul\":17472:17477   */\n      dup2\n        /* \"#utility.yul\":17469:17483   */\n      lt\n        /* \"#utility.yul\":17462:17582   */\n      iszero\n      tag_303\n      jumpi\n        /* \"#utility.yul\":17533:17572   */\n      tag_304\n        /* \"#utility.yul\":17570:17571   */\n      0x00\n        /* \"#utility.yul\":17563:17568   */\n      dup3\n        /* \"#utility.yul\":17533:17572   */\n      tag_136\n      jump\t// in\n    tag_304:\n        /* \"#utility.yul\":17506:17507   */\n      0x01\n        /* \"#utility.yul\":17499:17504   */\n      dup2\n        /* \"#utility.yul\":17495:17508   */\n      add\n        /* \"#utility.yul\":17486:17508   */\n      swap1\n      pop\n        /* \"#utility.yul\":17462:17582   */\n      jump(tag_301)\n    tag_303:\n        /* \"#utility.yul\":17402:17588   */\n      pop\n      pop\n      jump\t// out\n        /* \"#utility.yul\":17594:18137   */\n    tag_138:\n        /* \"#utility.yul\":17695:17697   */\n      0x1f\n        /* \"#utility.yul\":17690:17693   */\n      dup3\n        /* \"#utility.yul\":17687:17698   */\n      gt\n        /* \"#utility.yul\":17684:18130   */\n      iszero\n      tag_306\n      jumpi\n        /* \"#utility.yul\":17729:17767   */\n      tag_307\n        /* \"#utility.yul\":17761:17766   */\n      dup2\n        /* \"#utility.yul\":17729:17767   */\n      tag_127\n      jump\t// in\n    tag_307:\n        /* \"#utility.yul\":17813:17842   */\n      tag_308\n        /* \"#utility.yul\":17831:17841   */\n      dup5\n        /* \"#utility.yul\":17813:17842   */\n      tag_128\n      jump\t// in\n    tag_308:\n        /* \"#utility.yul\":17803:17811   */\n      dup2\n        /* \"#utility.yul\":17799:17843   */\n      add\n        /* \"#utility.yul\":17996:17998   */\n      0x20\n        /* \"#utility.yul\":17984:17994   */\n      dup6\n        /* \"#utility.yul\":17981:17999   */\n      lt\n        /* \"#utility.yul\":17978:18027   */\n      iszero\n      tag_309\n      jumpi\n        /* \"#utility.yul\":18017:18025   */\n      dup2\n        /* \"#utility.yul\":18002:18025   */\n      swap1\n      pop\n        /* \"#utility.yul\":17978:18027   */\n    tag_309:\n        /* \"#utility.yul\":18040:18120   */\n      tag_310\n        /* \"#utility.yul\":18096:18118   */\n      tag_311\n        /* \"#utility.yul\":18114:18117   */\n      dup6\n        /* \"#utility.yul\":18096:18118   */\n      tag_128\n      jump\t// in\n    tag_311:\n        /* \"#utility.yul\":18086:18094   */\n      dup4\n        /* \"#utility.yul\":18082:18119   */\n      add\n        /* \"#utility.yul\":18069:18080   */\n      dup3\n        /* \"#utility.yul\":18040:18120   */\n      tag_137\n      jump\t// in\n    tag_310:\n        /* \"#utility.yul\":17699:18130   */\n      pop\n      pop\n        /* \"#utility.yul\":17684:18130   */\n    tag_306:\n        /* \"#utility.yul\":17594:18137   */\n      pop\n      pop\n      pop\n      jump\t// out\n        /* \"#utility.yul\":18143:18260   */\n    tag_139:\n        /* \"#utility.yul\":18197:18205   */\n      0x00\n        /* \"#utility.yul\":18247:18252   */\n      dup3\n        /* \"#utility.yul\":18241:18245   */\n      dup3\n        /* \"#utility.yul\":18237:18253   */\n      shr\n        /* \"#utility.yul\":18216:18253   */\n      swap1\n      pop\n        /* \"#utility.yul\":18143:18260   */\n      swap3\n      swap2\n      pop\n      pop\n      jump\t// out\n        /* \"#utility.yul\":18266:18435   */\n    tag_140:\n        /* \"#utility.yul\":18310:18316   */\n      0x00\n        /* \"#utility.yul\":18343:18394   */\n      tag_314\n        /* \"#utility.yul\":18391:18392   */\n      0x00\n        /* \"#utility.yul\":18387:18393   */\n      not\n        /* \"#utility.yul\":18379:18384   */\n      dup5\n        /* \"#utility.yul\":18376:18377   */\n      0x08\n        /* \"#utility.yul\":18372:18385   */\n      mul\n        /* \"#utility.yul\":18343:18394   */\n      tag_139\n      jump\t// in\n    tag_314:\n        /* \"#utility.yul\":18339:18395   */\n      not\n        /* \"#utility.yul\":18424:18428   */\n      dup1\n        /* \"#utility.yul\":18418:18422   */\n      dup4\n        /* \"#utility.yul\":18414:18429   */\n      and\n        /* \"#utility.yul\":18404:18429   */\n      swap2\n      pop\n        /* \"#utility.yul\":18317:18435   */\n      pop\n        /* \"#utility.yul\":18266:18435   */\n      swap3\n      swap2\n      pop\n      pop\n      jump\t// out\n        /* \"#utility.yul\":18440:18735   */\n    tag_141:\n        /* \"#utility.yul\":18516:18520   */\n      0x00\n        /* \"#utility.yul\":18662:18691   */\n      tag_316\n        /* \"#utility.yul\":18687:18690   */\n      dup4\n        /* \"#utility.yul\":18681:18685   */\n      dup4\n        /* \"#utility.yul\":18662:18691   */\n      tag_140\n      jump\t// in\n    tag_316:\n        /* \"#utility.yul\":18654:18691   */\n      swap2\n      pop\n        /* \"#utility.yul\":18724:18727   */\n      dup3\n        /* \"#utility.yul\":18721:18722   */\n      0x02\n        /* \"#utility.yul\":18717:18728   */\n      mul\n        /* \"#utility.yul\":18711:18715   */\n      dup3\n        /* \"#utility.yul\":18708:18729   */\n      or\n        /* \"#utility.yul\":18700:18729   */\n      swap1\n      pop\n        /* \"#utility.yul\":18440:18735   */\n      swap3\n      swap2\n      pop\n      pop\n      jump\t// out\n        /* \"#utility.yul\":18740:20135   */\n    tag_71:\n        /* \"#utility.yul\":18857:18894   */\n      tag_318\n        /* \"#utility.yul\":18890:18893   */\n      dup3\n        /* \"#utility.yul\":18857:18894   */\n      tag_94\n      jump\t// in\n    tag_318:\n        /* \"#utility.yul\":18959:18977   */\n      0xffffffffffffffff\n        /* \"#utility.yul\":18951:18957   */\n      dup2\n        /* \"#utility.yul\":18948:18978   */\n      gt\n        /* \"#utility.yul\":18945:19001   */\n      iszero\n      tag_319\n      jumpi\n        /* \"#utility.yul\":18981:18999   */\n      tag_320\n      tag_35\n      jump\t// in\n    tag_320:\n        /* \"#utility.yul\":18945:19001   */\n    tag_319:\n        /* \"#utility.yul\":19025:19063   */\n      tag_321\n        /* \"#utility.yul\":19057:19061   */\n      dup3\n        /* \"#utility.yul\":19051:19062   */\n      sload\n        /* \"#utility.yul\":19025:19063   */\n      tag_44\n      jump\t// in\n    tag_321:\n        /* \"#utility.yul\":19110:19177   */\n      tag_322\n        /* \"#utility.yul\":19170:19176   */\n      dup3\n        /* \"#utility.yul\":19162:19168   */\n      dup3\n        /* \"#utility.yul\":19156:19160   */\n      dup6\n        /* \"#utility.yul\":19110:19177   */\n      tag_138\n      jump\t// in\n    tag_322:\n        /* \"#utility.yul\":19204:19205   */\n      0x00\n        /* \"#utility.yul\":19228:19232   */\n      0x20\n        /* \"#utility.yul\":19215:19232   */\n      swap1\n      pop\n        /* \"#utility.yul\":19260:19262   */\n      0x1f\n        /* \"#utility.yul\":19252:19258   */\n      dup4\n        /* \"#utility.yul\":19249:19263   */\n      gt\n        /* \"#utility.yul\":19277:19278   */\n      0x01\n        /* \"#utility.yul\":19272:19890   */\n      dup2\n      eq\n      tag_324\n      jumpi\n        /* \"#utility.yul\":19934:19935   */\n      0x00\n        /* \"#utility.yul\":19951:19957   */\n      dup5\n        /* \"#utility.yul\":19948:20025   */\n      iszero\n      tag_325\n      jumpi\n        /* \"#utility.yul\":20000:20009   */\n      dup3\n        /* \"#utility.yul\":19995:19998   */\n      dup8\n        /* \"#utility.yul\":19991:20010   */\n      add\n        /* \"#utility.yul\":19985:20011   */\n      mload\n        /* \"#utility.yul\":19976:20011   */\n      swap1\n      pop\n        /* \"#utility.yul\":19948:20025   */\n    tag_325:\n        /* \"#utility.yul\":20051:20118   */\n      tag_326\n        /* \"#utility.yul\":20111:20117   */\n      dup6\n        /* \"#utility.yul\":20104:20109   */\n      dup3\n        /* \"#utility.yul\":20051:20118   */\n      tag_141\n      jump\t// in\n    tag_326:\n        /* \"#utility.yul\":20045:20049   */\n      dup7\n        /* \"#utility.yul\":20038:20119   */\n      sstore\n        /* \"#utility.yul\":19907:20129   */\n      pop\n        /* \"#utility.yul\":19242:20129   */\n      jump(tag_323)\n        /* \"#utility.yul\":19272:19890   */\n    tag_324:\n        /* \"#utility.yul\":19324:19328   */\n      0x1f\n        /* \"#utility.yul\":19320:19329   */\n      not\n        /* \"#utility.yul\":19312:19318   */\n      dup5\n        /* \"#utility.yul\":19308:19330   */\n      and\n        /* \"#utility.yul\":19358:19395   */\n      tag_327\n        /* \"#utility.yul\":19390:19394   */\n      dup7\n        /* \"#utility.yul\":19358:19395   */\n      tag_127\n      jump\t// in\n    tag_327:\n        /* \"#utility.yul\":19417:19418   */\n      0x00\n        /* \"#utility.yul\":19431:19639   */\n    tag_328:\n        /* \"#utility.yul\":19445:19452   */\n      dup3\n        /* \"#utility.yul\":19442:19443   */\n      dup2\n        /* \"#utility.yul\":19439:19453   */\n      lt\n        /* \"#utility.yul\":19431:19639   */\n      iszero\n      tag_330\n      jumpi\n        /* \"#utility.yul\":19524:19533   */\n      dup5\n        /* \"#utility.yul\":19519:19522   */\n      dup10\n        /* \"#utility.yul\":19515:19534   */\n      add\n        /* \"#utility.yul\":19509:19535   */\n      mload\n        /* \"#utility.yul\":19501:19507   */\n      dup3\n        /* \"#utility.yul\":19494:19536   */\n      sstore\n        /* \"#utility.yul\":19575:19576   */\n      0x01\n        /* \"#utility.yul\":19567:19573   */\n      dup3\n        /* \"#utility.yul\":19563:19577   */\n      add\n        /* \"#utility.yul\":19553:19577   */\n      swap2\n      pop\n        /* \"#utility.yul\":19622:19624   */\n      0x20\n        /* \"#utility.yul\":19611:19620   */\n      dup6\n        /* \"#utility.yul\":19607:19625   */\n      add\n        /* \"#utility.yul\":19594:19625   */\n      swap5\n      pop\n        /* \"#utility.yul\":19468:19472   */\n      0x20\n        /* \"#utility.yul\":19465:19466   */\n      dup2\n        /* \"#utility.yul\":19461:19473   */\n      add\n        /* \"#utility.yul\":19456:19473   */\n      swap1\n      pop\n        /* \"#utility.yul\":19431:19639   */\n      jump(tag_328)\n    tag_330:\n        /* \"#utility.yul\":19667:19673   */\n      dup7\n        /* \"#utility.yul\":19658:19665   */\n      dup4\n        /* \"#utility.yul\":19655:19674   */\n      lt\n        /* \"#utility.yul\":19652:19831   */\n      iszero\n      tag_331\n      jumpi\n        /* \"#utility.yul\":19725:19734   */\n      dup5\n        /* \"#utility.yul\":19720:19723   */\n      dup10\n        /* \"#utility.yul\":19716:19735   */\n      add\n        /* \"#utility.yul\":19710:19736   */\n      mload\n        /* \"#utility.yul\":19768:19816   */\n      tag_332\n        /* \"#utility.yul\":19810:19814   */\n      0x1f\n        /* \"#utility.yul\":19802:19808   */\n      dup10\n        /* \"#utility.yul\":19798:19815   */\n      and\n        /* \"#utility.yul\":19787:19796   */\n      dup3\n        /* \"#utility.yul\":19768:19816   */\n      tag_140\n      jump\t// in\n    tag_332:\n        /* \"#utility.yul\":19760:19766   */\n      dup4\n        /* \"#utility.yul\":19753:19817   */\n      sstore\n        /* \"#utility.yul\":19675:19831   */\n      pop\n        /* \"#utility.yul\":19652:19831   */\n    tag_331:\n        /* \"#utility.yul\":19877:19878   */\n      0x01\n        /* \"#utility.yul\":19873:19874   */\n      0x02\n        /* \"#utility.yul\":19865:19871   */\n      dup9\n        /* \"#utility.yul\":19861:19875   */\n      mul\n        /* \"#utility.yul\":19857:19879   */\n      add\n        /* \"#utility.yul\":19851:19855   */\n      dup9\n        /* \"#utility.yul\":19844:19880   */\n      sstore\n        /* \"#utility.yul\":19279:19890   */\n      pop\n      pop\n      pop\n        /* \"#utility.yul\":19242:20129   */\n    tag_323:\n      pop\n        /* \"#utility.yul\":18832:20135   */\n      pop\n      pop\n      pop\n        /* \"#utility.yul\":18740:20135   */\n      pop\n      pop\n      jump\t// out\n\n    auxdata: 0xa26469706673582212209202c9122f7eb938a8bdf38217c12efa9956a45bc4de97830152aecc6b10adb964736f6c63430008130033\n}\n",
				"bytecode": {
					"linkReferences": {},
					"object": "608060405234801561001057600080fd5b50336000806101000a81548173ffffffffffffffffffffffffffffffffffffffff021916908373ffffffffffffffffffffffffffffffffffffffff1602179055506110a2806100606000396000f3fe608060405234801561001057600080fd5b50600436106100575760003560e01c80638da5cb5b1461005c5780639f3497891461007a578063b905ad7814610098578063ce9d915a146100b6578063e0ff5b8b146100d2575b600080fd5b610064610102565b604051610071919061066a565b60405180910390f35b610082610126565b60405161008f919061085a565b60405180910390f35b6100a0610333565b6040516100ad919061088b565b60405180910390f35b6100d060048036038101906100cb9190610a1b565b610339565b005b6100ec60048036038101906100e79190610aa6565b61049c565b6040516100f99190610b3d565b60405180910390f35b60008054906101000a900473ffffffffffffffffffffffffffffffffffffffff1681565b6060600180546101369190610b8e565b67ffffffffffffffff81111561014f5761014e6108c4565b5b60405190808252806020026020018201604052801561018857816020015b610175610601565b81526020019060019003908161016d5790505b5090506000600190505b60015481101561032f5760026000828152602001908152602001600020604051806080016040529081600082015481526020016001820180546101d490610bf1565b80601f016020809104026020016040519081016040528092919081815260200182805461020090610bf1565b801561024d5780601f106102225761010080835404028352916020019161024d565b820191906000526020600020905b81548152906001019060200180831161023057829003601f168201915b5050505050815260200160028201805461026690610bf1565b80601f016020809104026020016040519081016040528092919081815260200182805461029290610bf1565b80156102df5780601f106102b4576101008083540402835291602001916102df565b820191906000526020600020905b8154815290600101906020018083116102c257829003601f168201915b50505050508152602001600382015481525050826001836103009190610b8e565b8151811061031157610310610c22565b5b6020026020010181905250808061032790610c51565b915050610192565b5090565b60015481565b600083511161037d576040517f08c379a000000000000000000000000000000000000000000000000000000000815260040161037490610cf6565b60405180910390fd5b60008251116103c1576040517f08c379a00000000000000000000000000000000000000000000000000000000081526004016103b890610d62565b60405180910390fd5b60008111610404576040517f08c379a00000000000000000000000000000000000000000000000000000000081526004016103fb90610dce565b60405180910390fd5b604051806080016040528060015481526020018481526020018381526020018281525060026000600154815260200190815260200160002060008201518160000155602082015181600101908161045b9190610f9a565b5060408201518160020190816104719190610f9a565b50606082015181600301559050506001600081548092919061049290610c51565b9190505550505050565b6104a4610601565b60026000838152602001908152602001600020604051806080016040529081600082015481526020016001820180546104dc90610bf1565b80601f016020809104026020016040519081016040528092919081815260200182805461050890610bf1565b80156105555780601f1061052a57610100808354040283529160200191610555565b820191906000526020600020905b81548152906001019060200180831161053857829003601f168201915b5050505050815260200160028201805461056e90610bf1565b80601f016020809104026020016040519081016040528092919081815260200182805461059a90610bf1565b80156105e75780601f106105bc576101008083540402835291602001916105e7565b820191906000526020600020905b8154815290600101906020018083116105ca57829003601f168201915b505050505081526020016003820154815250509050919050565b6040518060800160405280600081526020016060815260200160608152602001600081525090565b600073ffffffffffffffffffffffffffffffffffffffff82169050919050565b600061065482610629565b9050919050565b61066481610649565b82525050565b600060208201905061067f600083018461065b565b92915050565b600081519050919050565b600082825260208201905092915050565b6000819050602082019050919050565b6000819050919050565b6106c4816106b1565b82525050565b600081519050919050565b600082825260208201905092915050565b60005b838110156107045780820151818401526020810190506106e9565b60008484015250505050565b6000601f19601f8301169050919050565b600061072c826106ca565b61073681856106d5565b93506107468185602086016106e6565b61074f81610710565b840191505092915050565b600060808301600083015161077260008601826106bb565b506020830151848203602086015261078a8282610721565b915050604083015184820360408601526107a48282610721565b91505060608301516107b960608601826106bb565b508091505092915050565b60006107d0838361075a565b905092915050565b6000602082019050919050565b60006107f082610685565b6107fa8185610690565b93508360208202850161080c856106a1565b8060005b85811015610848578484038952815161082985826107c4565b9450610834836107d8565b925060208a01995050600181019050610810565b50829750879550505050505092915050565b6000602082019050818103600083015261087481846107e5565b905092915050565b610885816106b1565b82525050565b60006020820190506108a0600083018461087c565b92915050565b6000604051905090565b600080fd5b600080fd5b600080fd5b600080fd5b7f4e487b7100000000000000000000000000000000000000000000000000000000600052604160045260246000fd5b6108fc82610710565b810181811067ffffffffffffffff8211171561091b5761091a6108c4565b5b80604052505050565b600061092e6108a6565b905061093a82826108f3565b919050565b600067ffffffffffffffff82111561095a576109596108c4565b5b61096382610710565b9050602081019050919050565b82818337600083830152505050565b600061099261098d8461093f565b610924565b9050828152602081018484840111156109ae576109ad6108bf565b5b6109b9848285610970565b509392505050565b600082601f8301126109d6576109d56108ba565b5b81356109e684826020860161097f565b91505092915050565b6109f8816106b1565b8114610a0357600080fd5b50565b600081359050610a15816109ef565b92915050565b600080600060608486031215610a3457610a336108b0565b5b600084013567ffffffffffffffff811115610a5257610a516108b5565b5b610a5e868287016109c1565b935050602084013567ffffffffffffffff811115610a7f57610a7e6108b5565b5b610a8b868287016109c1565b9250506040610a9c86828701610a06565b9150509250925092565b600060208284031215610abc57610abb6108b0565b5b6000610aca84828501610a06565b91505092915050565b6000608083016000830151610aeb60008601826106bb565b5060208301518482036020860152610b038282610721565b91505060408301518482036040860152610b1d8282610721565b9150506060830151610b3260608601826106bb565b508091505092915050565b60006020820190508181036000830152610b578184610ad3565b905092915050565b7f4e487b7100000000000000000000000000000000000000000000000000000000600052601160045260246000fd5b6000610b99826106b1565b9150610ba4836106b1565b9250828203905081811115610bbc57610bbb610b5f565b5b92915050565b7f4e487b7100000000000000000000000000000000000000000000000000000000600052602260045260246000fd5b60006002820490506001821680610c0957607f821691505b602082108103610c1c57610c1b610bc2565b5b50919050565b7f4e487b7100000000000000000000000000000000000000000000000000000000600052603260045260246000fd5b6000610c5c826106b1565b91507fffffffffffffffffffffffffffffffffffffffffffffffffffffffffffffffff8203610c8e57610c8d610b5f565b5b600182019050919050565b600082825260208201905092915050565b7f4e616d652063616e6e6f7420626520656d707479000000000000000000000000600082015250565b6000610ce0601483610c99565b9150610ceb82610caa565b602082019050919050565b60006020820190508181036000830152610d0f81610cd3565b9050919050565b7f4465736372697074696f6e2063616e6e6f7420626520656d7074790000000000600082015250565b6000610d4c601b83610c99565b9150610d5782610d16565b602082019050919050565b60006020820190508181036000830152610d7b81610d3f565b9050919050565b7f5072696365206d7573742062652067726561746572207468616e203000000000600082015250565b6000610db8601c83610c99565b9150610dc382610d82565b602082019050919050565b60006020820190508181036000830152610de781610dab565b9050919050565b60008190508160005260206000209050919050565b60006020601f8301049050919050565b600082821b905092915050565b600060088302610e507fffffffffffffffffffffffffffffffffffffffffffffffffffffffffffffffff82610e13565b610e5a8683610e13565b95508019841693508086168417925050509392505050565b6000819050919050565b6000610e97610e92610e8d846106b1565b610e72565b6106b1565b9050919050565b6000819050919050565b610eb183610e7c565b610ec5610ebd82610e9e565b848454610e20565b825550505050565b600090565b610eda610ecd565b610ee5818484610ea8565b505050565b5b81811015610f0957610efe600082610ed2565b600181019050610eeb565b5050565b601f821115610f4e57610f1f81610dee565b610f2884610e03565b81016020851015610f37578190505b610f4b610f4385610e03565b830182610eea565b50505b505050565b600082821c905092915050565b6000610f7160001984600802610f53565b1980831691505092915050565b6000610f8a8383610f60565b9150826002028217905092915050565b610fa3826106ca565b67ffffffffffffffff811115610fbc57610fbb6108c4565b5b610fc68254610bf1565b610fd1828285610f0d565b600060209050601f8311600181146110045760008415610ff2578287015190505b610ffc8582610f7e565b865550611064565b601f19841661101286610dee565b60005b8281101561103a57848901518255600182019150602085019450602081019050611015565b868310156110575784890151611053601f891682610f60565b8355505b6001600288020188555050505b50505050505056fea26469706673582212209202c9122f7eb938a8bdf38217c12efa9956a45bc4de97830152aecc6b10adb964736f6c63430008130033",
					"opcodes": "PUSH1 0x80 PUSH1 0x40 MSTORE CALLVALUE DUP1 ISZERO PUSH2 0x10 JUMPI PUSH1 0x0 DUP1 REVERT JUMPDEST POP CALLER PUSH1 0x0 DUP1 PUSH2 0x100 EXP DUP2 SLOAD DUP2 PUSH20 0xFFFFFFFFFFFFFFFFFFFFFFFFFFFFFFFFFFFFFFFF MUL NOT AND SWAP1 DUP4 PUSH20 0xFFFFFFFFFFFFFFFFFFFFFFFFFFFFFFFFFFFFFFFF AND MUL OR SWAP1 SSTORE POP PUSH2 0x10A2 DUP1 PUSH2 0x60 PUSH1 0x0 CODECOPY PUSH1 0x0 RETURN INVALID PUSH1 0x80 PUSH1 0x40 MSTORE CALLVALUE DUP1 ISZERO PUSH2 0x10 JUMPI PUSH1 0x0 DUP1 REVERT JUMPDEST POP PUSH1 0x4 CALLDATASIZE LT PUSH2 0x57 JUMPI PUSH1 0x0 CALLDATALOAD PUSH1 0xE0 SHR DUP1 PUSH4 0x8DA5CB5B EQ PUSH2 0x5C JUMPI DUP1 PUSH4 0x9F349789 EQ PUSH2 0x7A JUMPI DUP1 PUSH4 0xB905AD78 EQ PUSH2 0x98 JUMPI DUP1 PUSH4 0xCE9D915A EQ PUSH2 0xB6 JUMPI DUP1 PUSH4 0xE0FF5B8B EQ PUSH2 0xD2 JUMPI JUMPDEST PUSH1 0x0 DUP1 REVERT JUMPDEST PUSH2 0x64 PUSH2 0x102 JUMP JUMPDEST PUSH1 0x40 MLOAD PUSH2 0x71 SWAP2 SWAP1 PUSH2 0x66A JUMP JUMPDEST PUSH1 0x40 MLOAD DUP1 SWAP2 SUB SWAP1 RETURN JUMPDEST PUSH2 0x82 PUSH2 0x126 JUMP JUMPDEST PUSH1 0x40 MLOAD PUSH2 0x8F SWAP2 SWAP1 PUSH2 0x85A JUMP JUMPDEST PUSH1 0x40 MLOAD DUP1 SWAP2 SUB SWAP1 RETURN JUMPDEST PUSH2 0xA0 PUSH2 0x333 JUMP JUMPDEST PUSH1 0x40 MLOAD PUSH2 0xAD SWAP2 SWAP1 PUSH2 0x88B JUMP JUMPDEST PUSH1 0x40 MLOAD DUP1 SWAP2 SUB SWAP1 RETURN JUMPDEST PUSH2 0xD0 PUSH1 0x4 DUP1 CALLDATASIZE SUB DUP2 ADD SWAP1 PUSH2 0xCB SWAP2 SWAP1 PUSH2 0xA1B JUMP JUMPDEST PUSH2 0x339 JUMP JUMPDEST STOP JUMPDEST PUSH2 0xEC PUSH1 0x4 DUP1 CALLDATASIZE SUB DUP2 ADD SWAP1 PUSH2 0xE7 SWAP2 SWAP1 PUSH2 0xAA6 JUMP JUMPDEST PUSH2 0x49C JUMP JUMPDEST PUSH1 0x40 MLOAD PUSH2 0xF9 SWAP2 SWAP1 PUSH2 0xB3D JUMP JUMPDEST PUSH1 0x40 MLOAD DUP1 SWAP2 SUB SWAP1 RETURN JUMPDEST PUSH1 0x0 DUP1 SLOAD SWAP1 PUSH2 0x100 EXP SWAP1 DIV PUSH20 0xFFFFFFFFFFFFFFFFFFFFFFFFFFFFFFFFFFFFFFFF AND DUP2 JUMP JUMPDEST PUSH1 0x60 PUSH1 0x1 DUP1 SLOAD PUSH2 0x136 SWAP2 SWAP1 PUSH2 0xB8E JUMP JUMPDEST PUSH8 0xFFFFFFFFFFFFFFFF DUP2 GT ISZERO PUSH2 0x14F JUMPI PUSH2 0x14E PUSH2 0x8C4 JUMP JUMPDEST JUMPDEST PUSH1 0x40 MLOAD SWAP1 DUP1 DUP3 MSTORE DUP1 PUSH1 0x20 MUL PUSH1 0x20 ADD DUP3 ADD PUSH1 0x40 MSTORE DUP1 ISZERO PUSH2 0x188 JUMPI DUP2 PUSH1 0x20 ADD JUMPDEST PUSH2 0x175 PUSH2 0x601 JUMP JUMPDEST DUP2 MSTORE PUSH1 0x20 ADD SWAP1 PUSH1 0x1 SWAP1 SUB SWAP1 DUP2 PUSH2 0x16D JUMPI SWAP1 POP JUMPDEST POP SWAP1 POP PUSH1 0x0 PUSH1 0x1 SWAP1 POP JUMPDEST PUSH1 0x1 SLOAD DUP2 LT ISZERO PUSH2 0x32F JUMPI PUSH1 0x2 PUSH1 0x0 DUP3 DUP2 MSTORE PUSH1 0x20 ADD SWAP1 DUP2 MSTORE PUSH1 0x20 ADD PUSH1 0x0 KECCAK256 PUSH1 0x40 MLOAD DUP1 PUSH1 0x80 ADD PUSH1 0x40 MSTORE SWAP1 DUP2 PUSH1 0x0 DUP3 ADD SLOAD DUP2 MSTORE PUSH1 0x20 ADD PUSH1 0x1 DUP3 ADD DUP1 SLOAD PUSH2 0x1D4 SWAP1 PUSH2 0xBF1 JUMP JUMPDEST DUP1 PUSH1 0x1F ADD PUSH1 0x20 DUP1 SWAP2 DIV MUL PUSH1 0x20 ADD PUSH1 0x40 MLOAD SWAP1 DUP2 ADD PUSH1 0x40 MSTORE DUP1 SWAP3 SWAP2 SWAP1 DUP2 DUP2 MSTORE PUSH1 0x20 ADD DUP3 DUP1 SLOAD PUSH2 0x200 SWAP1 PUSH2 0xBF1 JUMP JUMPDEST DUP1 ISZERO PUSH2 0x24D JUMPI DUP1 PUSH1 0x1F LT PUSH2 0x222 JUMPI PUSH2 0x100 DUP1 DUP4 SLOAD DIV MUL DUP4 MSTORE SWAP2 PUSH1 0x20 ADD SWAP2 PUSH2 0x24D JUMP JUMPDEST DUP3 ADD SWAP2 SWAP1 PUSH1 0x0 MSTORE PUSH1 0x20 PUSH1 0x0 KECCAK256 SWAP1 JUMPDEST DUP2 SLOAD DUP2 MSTORE SWAP1 PUSH1 0x1 ADD SWAP1 PUSH1 0x20 ADD DUP1 DUP4 GT PUSH2 0x230 JUMPI DUP3 SWAP1 SUB PUSH1 0x1F AND DUP3 ADD SWAP2 JUMPDEST POP POP POP POP POP DUP2 MSTORE PUSH1 0x20 ADD PUSH1 0x2 DUP3 ADD DUP1 SLOAD PUSH2 0x266 SWAP1 PUSH2 0xBF1 JUMP JUMPDEST DUP1 PUSH1 0x1F ADD PUSH1 0x20 DUP1 SWAP2 DIV MUL PUSH1 0x20 ADD PUSH1 0x40 MLOAD SWAP1 DUP2 ADD PUSH1 0x40 MSTORE DUP1 SWAP3 SWAP2 SWAP1 DUP2 DUP2 MSTORE PUSH1 0x20 ADD DUP3 DUP1 SLOAD PUSH2 0x292 SWAP1 PUSH2 0xBF1 JUMP JUMPDEST DUP1 ISZERO PUSH2 0x2DF JUMPI DUP1 PUSH1 0x1F LT PUSH2 0x2B4 JUMPI PUSH2 0x100 DUP1 DUP4 SLOAD DIV MUL DUP4 MSTORE SWAP2 PUSH1 0x20 ADD SWAP2 PUSH2 0x2DF JUMP JUMPDEST DUP3 ADD SWAP2 SWAP1 PUSH1 0x0 MSTORE PUSH1 0x20 PUSH1 0x0 KECCAK256 SWAP1 JUMPDEST DUP2 SLOAD DUP2 MSTORE SWAP1 PUSH1 0x1 ADD SWAP1 PUSH1 0x20 ADD DUP1 DUP4 GT PUSH2 0x2C2 JUMPI DUP3 SWAP1 SUB PUSH1 0x1F AND DUP3 ADD SWAP2 JUMPDEST POP POP POP POP POP DUP2 MSTORE PUSH1 0x20 ADD PUSH1 0x3 DUP3 ADD SLOAD DUP2 MSTORE POP POP DUP3 PUSH1 0x1 DUP4 PUSH2 0x300 SWAP2 SWAP1 PUSH2 0xB8E JUMP JUMPDEST DUP2 MLOAD DUP2 LT PUSH2 0x311 JUMPI PUSH2 0x310 PUSH2 0xC22 JUMP JUMPDEST JUMPDEST PUSH1 0x20 MUL PUSH1 0x20 ADD ADD DUP2 SWAP1 MSTORE POP DUP1 DUP1 PUSH2 0x327 SWAP1 PUSH2 0xC51 JUMP JUMPDEST SWAP2 POP POP PUSH2 0x192 JUMP JUMPDEST POP SWAP1 JUMP JUMPDEST PUSH1 0x1 SLOAD DUP2 JUMP JUMPDEST PUSH1 0x0 DUP4 MLOAD GT PUSH2 0x37D JUMPI PUSH1 0x40 MLOAD PUSH32 0x8C379A000000000000000000000000000000000000000000000000000000000 DUP2 MSTORE PUSH1 0x4 ADD PUSH2 0x374 SWAP1 PUSH2 0xCF6 JUMP JUMPDEST PUSH1 0x40 MLOAD DUP1 SWAP2 SUB SWAP1 REVERT JUMPDEST PUSH1 0x0 DUP3 MLOAD GT PUSH2 0x3C1 JUMPI PUSH1 0x40 MLOAD PUSH32 0x8C379A000000000000000000000000000000000000000000000000000000000 DUP2 MSTORE PUSH1 0x4 ADD PUSH2 0x3B8 SWAP1 PUSH2 0xD62 JUMP JUMPDEST PUSH1 0x40 MLOAD DUP1 SWAP2 SUB SWAP1 REVERT JUMPDEST PUSH1 0x0 DUP2 GT PUSH2 0x404 JUMPI PUSH1 0x40 MLOAD PUSH32 0x8C379A000000000000000000000000000000000000000000000000000000000 DUP2 MSTORE PUSH1 0x4 ADD PUSH2 0x3FB SWAP1 PUSH2 0xDCE JUMP JUMPDEST PUSH1 0x40 MLOAD DUP1 SWAP2 SUB SWAP1 REVERT JUMPDEST PUSH1 0x40 MLOAD DUP1 PUSH1 0x80 ADD PUSH1 0x40 MSTORE DUP1 PUSH1 0x1 SLOAD DUP2 MSTORE PUSH1 0x20 ADD DUP5 DUP2 MSTORE PUSH1 0x20 ADD DUP4 DUP2 MSTORE PUSH1 0x20 ADD DUP3 DUP2 MSTORE POP PUSH1 0x2 PUSH1 0x0 PUSH1 0x1 SLOAD DUP2 MSTORE PUSH1 0x20 ADD SWAP1 DUP2 MSTORE PUSH1 0x20 ADD PUSH1 0x0 KECCAK256 PUSH1 0x0 DUP3 ADD MLOAD DUP2 PUSH1 0x0 ADD SSTORE PUSH1 0x20 DUP3 ADD MLOAD DUP2 PUSH1 0x1 ADD SWAP1 DUP2 PUSH2 0x45B SWAP2 SWAP1 PUSH2 0xF9A JUMP JUMPDEST POP PUSH1 0x40 DUP3 ADD MLOAD DUP2 PUSH1 0x2 ADD SWAP1 DUP2 PUSH2 0x471 SWAP2 SWAP1 PUSH2 0xF9A JUMP JUMPDEST POP PUSH1 0x60 DUP3 ADD MLOAD DUP2 PUSH1 0x3 ADD SSTORE SWAP1 POP POP PUSH1 0x1 PUSH1 0x0 DUP2 SLOAD DUP1 SWAP3 SWAP2 SWAP1 PUSH2 0x492 SWAP1 PUSH2 0xC51 JUMP JUMPDEST SWAP2 SWAP1 POP SSTORE POP POP POP POP JUMP JUMPDEST PUSH2 0x4A4 PUSH2 0x601 JUMP JUMPDEST PUSH1 0x2 PUSH1 0x0 DUP4 DUP2 MSTORE PUSH1 0x20 ADD SWAP1 DUP2 MSTORE PUSH1 0x20 ADD PUSH1 0x0 KECCAK256 PUSH1 0x40 MLOAD DUP1 PUSH1 0x80 ADD PUSH1 0x40 MSTORE SWAP1 DUP2 PUSH1 0x0 DUP3 ADD SLOAD DUP2 MSTORE PUSH1 0x20 ADD PUSH1 0x1 DUP3 ADD DUP1 SLOAD PUSH2 0x4DC SWAP1 PUSH2 0xBF1 JUMP JUMPDEST DUP1 PUSH1 0x1F ADD PUSH1 0x20 DUP1 SWAP2 DIV MUL PUSH1 0x20 ADD PUSH1 0x40 MLOAD SWAP1 DUP2 ADD PUSH1 0x40 MSTORE DUP1 SWAP3 SWAP2 SWAP1 DUP2 DUP2 MSTORE PUSH1 0x20 ADD DUP3 DUP1 SLOAD PUSH2 0x508 SWAP1 PUSH2 0xBF1 JUMP JUMPDEST DUP1 ISZERO PUSH2 0x555 JUMPI DUP1 PUSH1 0x1F LT PUSH2 0x52A JUMPI PUSH2 0x100 DUP1 DUP4 SLOAD DIV MUL DUP4 MSTORE SWAP2 PUSH1 0x20 ADD SWAP2 PUSH2 0x555 JUMP JUMPDEST DUP3 ADD SWAP2 SWAP1 PUSH1 0x0 MSTORE PUSH1 0x20 PUSH1 0x0 KECCAK256 SWAP1 JUMPDEST DUP2 SLOAD DUP2 MSTORE SWAP1 PUSH1 0x1 ADD SWAP1 PUSH1 0x20 ADD DUP1 DUP4 GT PUSH2 0x538 JUMPI DUP3 SWAP1 SUB PUSH1 0x1F AND DUP3 ADD SWAP2 JUMPDEST POP POP POP POP POP DUP2 MSTORE PUSH1 0x20 ADD PUSH1 0x2 DUP3 ADD DUP1 SLOAD PUSH2 0x56E SWAP1 PUSH2 0xBF1 JUMP JUMPDEST DUP1 PUSH1 0x1F ADD PUSH1 0x20 DUP1 SWAP2 DIV MUL PUSH1 0x20 ADD PUSH1 0x40 MLOAD SWAP1 DUP2 ADD PUSH1 0x40 MSTORE DUP1 SWAP3 SWAP2 SWAP1 DUP2 DUP2 MSTORE PUSH1 0x20 ADD DUP3 DUP1 SLOAD PUSH2 0x59A SWAP1 PUSH2 0xBF1 JUMP JUMPDEST DUP1 ISZERO PUSH2 0x5E7 JUMPI DUP1 PUSH1 0x1F LT PUSH2 0x5BC JUMPI PUSH2 0x100 DUP1 DUP4 SLOAD DIV MUL DUP4 MSTORE SWAP2 PUSH1 0x20 ADD SWAP2 PUSH2 0x5E7 JUMP JUMPDEST DUP3 ADD SWAP2 SWAP1 PUSH1 0x0 MSTORE PUSH1 0x20 PUSH1 0x0 KECCAK256 SWAP1 JUMPDEST DUP2 SLOAD DUP2 MSTORE SWAP1 PUSH1 0x1 ADD SWAP1 PUSH1 0x20 ADD DUP1 DUP4 GT PUSH2 0x5CA JUMPI DUP3 SWAP1 SUB PUSH1 0x1F AND DUP3 ADD SWAP2 JUMPDEST POP POP POP POP POP DUP2 MSTORE PUSH1 0x20 ADD PUSH1 0x3 DUP3 ADD SLOAD DUP2 MSTORE POP POP SWAP1 POP SWAP2 SWAP1 POP JUMP JUMPDEST PUSH1 0x40 MLOAD DUP1 PUSH1 0x80 ADD PUSH1 0x40 MSTORE DUP1 PUSH1 0x0 DUP2 MSTORE PUSH1 0x20 ADD PUSH1 0x60 DUP2 MSTORE PUSH1 0x20 ADD PUSH1 0x60 DUP2 MSTORE PUSH1 0x20 ADD PUSH1 0x0 DUP2 MSTORE POP SWAP1 JUMP JUMPDEST PUSH1 0x0 PUSH20 0xFFFFFFFFFFFFFFFFFFFFFFFFFFFFFFFFFFFFFFFF DUP3 AND SWAP1 POP SWAP2 SWAP1 POP JUMP JUMPDEST PUSH1 0x0 PUSH2 0x654 DUP3 PUSH2 0x629 JUMP JUMPDEST SWAP1 POP SWAP2 SWAP1 POP JUMP JUMPDEST PUSH2 0x664 DUP2 PUSH2 0x649 JUMP JUMPDEST DUP3 MSTORE POP POP JUMP JUMPDEST PUSH1 0x0 PUSH1 0x20 DUP3 ADD SWAP1 POP PUSH2 0x67F PUSH1 0x0 DUP4 ADD DUP5 PUSH2 0x65B JUMP JUMPDEST SWAP3 SWAP2 POP POP JUMP JUMPDEST PUSH1 0x0 DUP2 MLOAD SWAP1 POP SWAP2 SWAP1 POP JUMP JUMPDEST PUSH1 0x0 DUP3 DUP3 MSTORE PUSH1 0x20 DUP3 ADD SWAP1 POP SWAP3 SWAP2 POP POP JUMP JUMPDEST PUSH1 0x0 DUP2 SWAP1 POP PUSH1 0x20 DUP3 ADD SWAP1 POP SWAP2 SWAP1 POP JUMP JUMPDEST PUSH1 0x0 DUP2 SWAP1 POP SWAP2 SWAP1 POP JUMP JUMPDEST PUSH2 0x6C4 DUP2 PUSH2 0x6B1 JUMP JUMPDEST DUP3 MSTORE POP POP JUMP JUMPDEST PUSH1 0x0 DUP2 MLOAD SWAP1 POP SWAP2 SWAP1 POP JUMP JUMPDEST PUSH1 0x0 DUP3 DUP3 MSTORE PUSH1 0x20 DUP3 ADD SWAP1 POP SWAP3 SWAP2 POP POP JUMP JUMPDEST PUSH1 0x0 JUMPDEST DUP4 DUP2 LT ISZERO PUSH2 0x704 JUMPI DUP1 DUP3 ADD MLOAD DUP2 DUP5 ADD MSTORE PUSH1 0x20 DUP2 ADD SWAP1 POP PUSH2 0x6E9 JUMP JUMPDEST PUSH1 0x0 DUP5 DUP5 ADD MSTORE POP POP POP POP JUMP JUMPDEST PUSH1 0x0 PUSH1 0x1F NOT PUSH1 0x1F DUP4 ADD AND SWAP1 POP SWAP2 SWAP1 POP JUMP JUMPDEST PUSH1 0x0 PUSH2 0x72C DUP3 PUSH2 0x6CA JUMP JUMPDEST PUSH2 0x736 DUP2 DUP6 PUSH2 0x6D5 JUMP JUMPDEST SWAP4 POP PUSH2 0x746 DUP2 DUP6 PUSH1 0x20 DUP7 ADD PUSH2 0x6E6 JUMP JUMPDEST PUSH2 0x74F DUP2 PUSH2 0x710 JUMP JUMPDEST DUP5 ADD SWAP2 POP POP SWAP3 SWAP2 POP POP JUMP JUMPDEST PUSH1 0x0 PUSH1 0x80 DUP4 ADD PUSH1 0x0 DUP4 ADD MLOAD PUSH2 0x772 PUSH1 0x0 DUP7 ADD DUP3 PUSH2 0x6BB JUMP JUMPDEST POP PUSH1 0x20 DUP4 ADD MLOAD DUP5 DUP3 SUB PUSH1 0x20 DUP7 ADD MSTORE PUSH2 0x78A DUP3 DUP3 PUSH2 0x721 JUMP JUMPDEST SWAP2 POP POP PUSH1 0x40 DUP4 ADD MLOAD DUP5 DUP3 SUB PUSH1 0x40 DUP7 ADD MSTORE PUSH2 0x7A4 DUP3 DUP3 PUSH2 0x721 JUMP JUMPDEST SWAP2 POP POP PUSH1 0x60 DUP4 ADD MLOAD PUSH2 0x7B9 PUSH1 0x60 DUP7 ADD DUP3 PUSH2 0x6BB JUMP JUMPDEST POP DUP1 SWAP2 POP POP SWAP3 SWAP2 POP POP JUMP JUMPDEST PUSH1 0x0 PUSH2 0x7D0 DUP4 DUP4 PUSH2 0x75A JUMP JUMPDEST SWAP1 POP SWAP3 SWAP2 POP POP JUMP JUMPDEST PUSH1 0x0 PUSH1 0x20 DUP3 ADD SWAP1 POP SWAP2 SWAP1 POP JUMP JUMPDEST PUSH1 0x0 PUSH2 0x7F0 DUP3 PUSH2 0x685 JUMP JUMPDEST PUSH2 0x7FA DUP2 DUP6 PUSH2 0x690 JUMP JUMPDEST SWAP4 POP DUP4 PUSH1 0x20 DUP3 MUL DUP6 ADD PUSH2 0x80C DUP6 PUSH2 0x6A1 JUMP JUMPDEST DUP1 PUSH1 0x0 JUMPDEST DUP6 DUP2 LT ISZERO PUSH2 0x848 JUMPI DUP5 DUP5 SUB DUP10 MSTORE DUP2 MLOAD PUSH2 0x829 DUP6 DUP3 PUSH2 0x7C4 JUMP JUMPDEST SWAP5 POP PUSH2 0x834 DUP4 PUSH2 0x7D8 JUMP JUMPDEST SWAP3 POP PUSH1 0x20 DUP11 ADD SWAP10 POP POP PUSH1 0x1 DUP2 ADD SWAP1 POP PUSH2 0x810 JUMP JUMPDEST POP DUP3 SWAP8 POP DUP8 SWAP6 POP POP POP POP POP POP SWAP3 SWAP2 POP POP JUMP JUMPDEST PUSH1 0x0 PUSH1 0x20 DUP3 ADD SWAP1 POP DUP2 DUP2 SUB PUSH1 0x0 DUP4 ADD MSTORE PUSH2 0x874 DUP2 DUP5 PUSH2 0x7E5 JUMP JUMPDEST SWAP1 POP SWAP3 SWAP2 POP POP JUMP JUMPDEST PUSH2 0x885 DUP2 PUSH2 0x6B1 JUMP JUMPDEST DUP3 MSTORE POP POP JUMP JUMPDEST PUSH1 0x0 PUSH1 0x20 DUP3 ADD SWAP1 POP PUSH2 0x8A0 PUSH1 0x0 DUP4 ADD DUP5 PUSH2 0x87C JUMP JUMPDEST SWAP3 SWAP2 POP POP JUMP JUMPDEST PUSH1 0x0 PUSH1 0x40 MLOAD SWAP1 POP SWAP1 JUMP JUMPDEST PUSH1 0x0 DUP1 REVERT JUMPDEST PUSH1 0x0 DUP1 REVERT JUMPDEST PUSH1 0x0 DUP1 REVERT JUMPDEST PUSH1 0x0 DUP1 REVERT JUMPDEST PUSH32 0x4E487B7100000000000000000000000000000000000000000000000000000000 PUSH1 0x0 MSTORE PUSH1 0x41 PUSH1 0x4 MSTORE PUSH1 0x24 PUSH1 0x0 REVERT JUMPDEST PUSH2 0x8FC DUP3 PUSH2 0x710 JUMP JUMPDEST DUP2 ADD DUP2 DUP2 LT PUSH8 0xFFFFFFFFFFFFFFFF DUP3 GT OR ISZERO PUSH2 0x91B JUMPI PUSH2 0x91A PUSH2 0x8C4 JUMP JUMPDEST JUMPDEST DUP1 PUSH1 0x40 MSTORE POP POP POP JUMP JUMPDEST PUSH1 0x0 PUSH2 0x92E PUSH2 0x8A6 JUMP JUMPDEST SWAP1 POP PUSH2 0x93A DUP3 DUP3 PUSH2 0x8F3 JUMP JUMPDEST SWAP2 SWAP1 POP JUMP JUMPDEST PUSH1 0x0 PUSH8 0xFFFFFFFFFFFFFFFF DUP3 GT ISZERO PUSH2 0x95A JUMPI PUSH2 0x959 PUSH2 0x8C4 JUMP JUMPDEST JUMPDEST PUSH2 0x963 DUP3 PUSH2 0x710 JUMP JUMPDEST SWAP1 POP PUSH1 0x20 DUP2 ADD SWAP1 POP SWAP2 SWAP1 POP JUMP JUMPDEST DUP3 DUP2 DUP4 CALLDATACOPY PUSH1 0x0 DUP4 DUP4 ADD MSTORE POP POP POP JUMP JUMPDEST PUSH1 0x0 PUSH2 0x992 PUSH2 0x98D DUP5 PUSH2 0x93F JUMP JUMPDEST PUSH2 0x924 JUMP JUMPDEST SWAP1 POP DUP3 DUP2 MSTORE PUSH1 0x20 DUP2 ADD DUP5 DUP5 DUP5 ADD GT ISZERO PUSH2 0x9AE JUMPI PUSH2 0x9AD PUSH2 0x8BF JUMP JUMPDEST JUMPDEST PUSH2 0x9B9 DUP5 DUP3 DUP6 PUSH2 0x970 JUMP JUMPDEST POP SWAP4 SWAP3 POP POP POP JUMP JUMPDEST PUSH1 0x0 DUP3 PUSH1 0x1F DUP4 ADD SLT PUSH2 0x9D6 JUMPI PUSH2 0x9D5 PUSH2 0x8BA JUMP JUMPDEST JUMPDEST DUP2 CALLDATALOAD PUSH2 0x9E6 DUP5 DUP3 PUSH1 0x20 DUP7 ADD PUSH2 0x97F JUMP JUMPDEST SWAP2 POP POP SWAP3 SWAP2 POP POP JUMP JUMPDEST PUSH2 0x9F8 DUP2 PUSH2 0x6B1 JUMP JUMPDEST DUP2 EQ PUSH2 0xA03 JUMPI PUSH1 0x0 DUP1 REVERT JUMPDEST POP JUMP JUMPDEST PUSH1 0x0 DUP2 CALLDATALOAD SWAP1 POP PUSH2 0xA15 DUP2 PUSH2 0x9EF JUMP JUMPDEST SWAP3 SWAP2 POP POP JUMP JUMPDEST PUSH1 0x0 DUP1 PUSH1 0x0 PUSH1 0x60 DUP5 DUP7 SUB SLT ISZERO PUSH2 0xA34 JUMPI PUSH2 0xA33 PUSH2 0x8B0 JUMP JUMPDEST JUMPDEST PUSH1 0x0 DUP5 ADD CALLDATALOAD PUSH8 0xFFFFFFFFFFFFFFFF DUP2 GT ISZERO PUSH2 0xA52 JUMPI PUSH2 0xA51 PUSH2 0x8B5 JUMP JUMPDEST JUMPDEST PUSH2 0xA5E DUP7 DUP3 DUP8 ADD PUSH2 0x9C1 JUMP JUMPDEST SWAP4 POP POP PUSH1 0x20 DUP5 ADD CALLDATALOAD PUSH8 0xFFFFFFFFFFFFFFFF DUP2 GT ISZERO PUSH2 0xA7F JUMPI PUSH2 0xA7E PUSH2 0x8B5 JUMP JUMPDEST JUMPDEST PUSH2 0xA8B DUP7 DUP3 DUP8 ADD PUSH2 0x9C1 JUMP JUMPDEST SWAP3 POP POP PUSH1 0x40 PUSH2 0xA9C DUP7 DUP3 DUP8 ADD PUSH2 0xA06 JUMP JUMPDEST SWAP2 POP POP SWAP3 POP SWAP3 POP SWAP3 JUMP JUMPDEST PUSH1 0x0 PUSH1 0x20 DUP3 DUP5 SUB SLT ISZERO PUSH2 0xABC JUMPI PUSH2 0xABB PUSH2 0x8B0 JUMP JUMPDEST JUMPDEST PUSH1 0x0 PUSH2 0xACA DUP5 DUP3 DUP6 ADD PUSH2 0xA06 JUMP JUMPDEST SWAP2 POP POP SWAP3 SWAP2 POP POP JUMP JUMPDEST PUSH1 0x0 PUSH1 0x80 DUP4 ADD PUSH1 0x0 DUP4 ADD MLOAD PUSH2 0xAEB PUSH1 0x0 DUP7 ADD DUP3 PUSH2 0x6BB JUMP JUMPDEST POP PUSH1 0x20 DUP4 ADD MLOAD DUP5 DUP3 SUB PUSH1 0x20 DUP7 ADD MSTORE PUSH2 0xB03 DUP3 DUP3 PUSH2 0x721 JUMP JUMPDEST SWAP2 POP POP PUSH1 0x40 DUP4 ADD MLOAD DUP5 DUP3 SUB PUSH1 0x40 DUP7 ADD MSTORE PUSH2 0xB1D DUP3 DUP3 PUSH2 0x721 JUMP JUMPDEST SWAP2 POP POP PUSH1 0x60 DUP4 ADD MLOAD PUSH2 0xB32 PUSH1 0x60 DUP7 ADD DUP3 PUSH2 0x6BB JUMP JUMPDEST POP DUP1 SWAP2 POP POP SWAP3 SWAP2 POP POP JUMP JUMPDEST PUSH1 0x0 PUSH1 0x20 DUP3 ADD SWAP1 POP DUP2 DUP2 SUB PUSH1 0x0 DUP4 ADD MSTORE PUSH2 0xB57 DUP2 DUP5 PUSH2 0xAD3 JUMP JUMPDEST SWAP1 POP SWAP3 SWAP2 POP POP JUMP JUMPDEST PUSH32 0x4E487B7100000000000000000000000000000000000000000000000000000000 PUSH1 0x0 MSTORE PUSH1 0x11 PUSH1 0x4 MSTORE PUSH1 0x24 PUSH1 0x0 REVERT JUMPDEST PUSH1 0x0 PUSH2 0xB99 DUP3 PUSH2 0x6B1 JUMP JUMPDEST SWAP2 POP PUSH2 0xBA4 DUP4 PUSH2 0x6B1 JUMP JUMPDEST SWAP3 POP DUP3 DUP3 SUB SWAP1 POP DUP2 DUP2 GT ISZERO PUSH2 0xBBC JUMPI PUSH2 0xBBB PUSH2 0xB5F JUMP JUMPDEST JUMPDEST SWAP3 SWAP2 POP POP JUMP JUMPDEST PUSH32 0x4E487B7100000000000000000000000000000000000000000000000000000000 PUSH1 0x0 MSTORE PUSH1 0x22 PUSH1 0x4 MSTORE PUSH1 0x24 PUSH1 0x0 REVERT JUMPDEST PUSH1 0x0 PUSH1 0x2 DUP3 DIV SWAP1 POP PUSH1 0x1 DUP3 AND DUP1 PUSH2 0xC09 JUMPI PUSH1 0x7F DUP3 AND SWAP2 POP JUMPDEST PUSH1 0x20 DUP3 LT DUP2 SUB PUSH2 0xC1C JUMPI PUSH2 0xC1B PUSH2 0xBC2 JUMP JUMPDEST JUMPDEST POP SWAP2 SWAP1 POP JUMP JUMPDEST PUSH32 0x4E487B7100000000000000000000000000000000000000000000000000000000 PUSH1 0x0 MSTORE PUSH1 0x32 PUSH1 0x4 MSTORE PUSH1 0x24 PUSH1 0x0 REVERT JUMPDEST PUSH1 0x0 PUSH2 0xC5C DUP3 PUSH2 0x6B1 JUMP JUMPDEST SWAP2 POP PUSH32 0xFFFFFFFFFFFFFFFFFFFFFFFFFFFFFFFFFFFFFFFFFFFFFFFFFFFFFFFFFFFFFFFF DUP3 SUB PUSH2 0xC8E JUMPI PUSH2 0xC8D PUSH2 0xB5F JUMP JUMPDEST JUMPDEST PUSH1 0x1 DUP3 ADD SWAP1 POP SWAP2 SWAP1 POP JUMP JUMPDEST PUSH1 0x0 DUP3 DUP3 MSTORE PUSH1 0x20 DUP3 ADD SWAP1 POP SWAP3 SWAP2 POP POP JUMP JUMPDEST PUSH32 0x4E616D652063616E6E6F7420626520656D707479000000000000000000000000 PUSH1 0x0 DUP3 ADD MSTORE POP JUMP JUMPDEST PUSH1 0x0 PUSH2 0xCE0 PUSH1 0x14 DUP4 PUSH2 0xC99 JUMP JUMPDEST SWAP2 POP PUSH2 0xCEB DUP3 PUSH2 0xCAA JUMP JUMPDEST PUSH1 0x20 DUP3 ADD SWAP1 POP SWAP2 SWAP1 POP JUMP JUMPDEST PUSH1 0x0 PUSH1 0x20 DUP3 ADD SWAP1 POP DUP2 DUP2 SUB PUSH1 0x0 DUP4 ADD MSTORE PUSH2 0xD0F DUP2 PUSH2 0xCD3 JUMP JUMPDEST SWAP1 POP SWAP2 SWAP1 POP JUMP JUMPDEST PUSH32 0x4465736372697074696F6E2063616E6E6F7420626520656D7074790000000000 PUSH1 0x0 DUP3 ADD MSTORE POP JUMP JUMPDEST PUSH1 0x0 PUSH2 0xD4C PUSH1 0x1B DUP4 PUSH2 0xC99 JUMP JUMPDEST SWAP2 POP PUSH2 0xD57 DUP3 PUSH2 0xD16 JUMP JUMPDEST PUSH1 0x20 DUP3 ADD SWAP1 POP SWAP2 SWAP1 POP JUMP JUMPDEST PUSH1 0x0 PUSH1 0x20 DUP3 ADD SWAP1 POP DUP2 DUP2 SUB PUSH1 0x0 DUP4 ADD MSTORE PUSH2 0xD7B DUP2 PUSH2 0xD3F JUMP JUMPDEST SWAP1 POP SWAP2 SWAP1 POP JUMP JUMPDEST PUSH32 0x5072696365206D7573742062652067726561746572207468616E203000000000 PUSH1 0x0 DUP3 ADD MSTORE POP JUMP JUMPDEST PUSH1 0x0 PUSH2 0xDB8 PUSH1 0x1C DUP4 PUSH2 0xC99 JUMP JUMPDEST SWAP2 POP PUSH2 0xDC3 DUP3 PUSH2 0xD82 JUMP JUMPDEST PUSH1 0x20 DUP3 ADD SWAP1 POP SWAP2 SWAP1 POP JUMP JUMPDEST PUSH1 0x0 PUSH1 0x20 DUP3 ADD SWAP1 POP DUP2 DUP2 SUB PUSH1 0x0 DUP4 ADD MSTORE PUSH2 0xDE7 DUP2 PUSH2 0xDAB JUMP JUMPDEST SWAP1 POP SWAP2 SWAP1 POP JUMP JUMPDEST PUSH1 0x0 DUP2 SWAP1 POP DUP2 PUSH1 0x0 MSTORE PUSH1 0x20 PUSH1 0x0 KECCAK256 SWAP1 POP SWAP2 SWAP1 POP JUMP JUMPDEST PUSH1 0x0 PUSH1 0x20 PUSH1 0x1F DUP4 ADD DIV SWAP1 POP SWAP2 SWAP1 POP JUMP JUMPDEST PUSH1 0x0 DUP3 DUP3 SHL SWAP1 POP SWAP3 SWAP2 POP POP JUMP JUMPDEST PUSH1 0x0 PUSH1 0x8 DUP4 MUL PUSH2 0xE50 PUSH32 0xFFFFFFFFFFFFFFFFFFFFFFFFFFFFFFFFFFFFFFFFFFFFFFFFFFFFFFFFFFFFFFFF DUP3 PUSH2 0xE13 JUMP JUMPDEST PUSH2 0xE5A DUP7 DUP4 PUSH2 0xE13 JUMP JUMPDEST SWAP6 POP DUP1 NOT DUP5 AND SWAP4 POP DUP1 DUP7 AND DUP5 OR SWAP3 POP POP POP SWAP4 SWAP3 POP POP POP JUMP JUMPDEST PUSH1 0x0 DUP2 SWAP1 POP SWAP2 SWAP1 POP JUMP JUMPDEST PUSH1 0x0 PUSH2 0xE97 PUSH2 0xE92 PUSH2 0xE8D DUP5 PUSH2 0x6B1 JUMP JUMPDEST PUSH2 0xE72 JUMP JUMPDEST PUSH2 0x6B1 JUMP JUMPDEST SWAP1 POP SWAP2 SWAP1 POP JUMP JUMPDEST PUSH1 0x0 DUP2 SWAP1 POP SWAP2 SWAP1 POP JUMP JUMPDEST PUSH2 0xEB1 DUP4 PUSH2 0xE7C JUMP JUMPDEST PUSH2 0xEC5 PUSH2 0xEBD DUP3 PUSH2 0xE9E JUMP JUMPDEST DUP5 DUP5 SLOAD PUSH2 0xE20 JUMP JUMPDEST DUP3 SSTORE POP POP POP POP JUMP JUMPDEST PUSH1 0x0 SWAP1 JUMP JUMPDEST PUSH2 0xEDA PUSH2 0xECD JUMP JUMPDEST PUSH2 0xEE5 DUP2 DUP5 DUP5 PUSH2 0xEA8 JUMP JUMPDEST POP POP POP JUMP JUMPDEST JUMPDEST DUP2 DUP2 LT ISZERO PUSH2 0xF09 JUMPI PUSH2 0xEFE PUSH1 0x0 DUP3 PUSH2 0xED2 JUMP JUMPDEST PUSH1 0x1 DUP2 ADD SWAP1 POP PUSH2 0xEEB JUMP JUMPDEST POP POP JUMP JUMPDEST PUSH1 0x1F DUP3 GT ISZERO PUSH2 0xF4E JUMPI PUSH2 0xF1F DUP2 PUSH2 0xDEE JUMP JUMPDEST PUSH2 0xF28 DUP5 PUSH2 0xE03 JUMP JUMPDEST DUP2 ADD PUSH1 0x20 DUP6 LT ISZERO PUSH2 0xF37 JUMPI DUP2 SWAP1 POP JUMPDEST PUSH2 0xF4B PUSH2 0xF43 DUP6 PUSH2 0xE03 JUMP JUMPDEST DUP4 ADD DUP3 PUSH2 0xEEA JUMP JUMPDEST POP POP JUMPDEST POP POP POP JUMP JUMPDEST PUSH1 0x0 DUP3 DUP3 SHR SWAP1 POP SWAP3 SWAP2 POP POP JUMP JUMPDEST PUSH1 0x0 PUSH2 0xF71 PUSH1 0x0 NOT DUP5 PUSH1 0x8 MUL PUSH2 0xF53 JUMP JUMPDEST NOT DUP1 DUP4 AND SWAP2 POP POP SWAP3 SWAP2 POP POP JUMP JUMPDEST PUSH1 0x0 PUSH2 0xF8A DUP4 DUP4 PUSH2 0xF60 JUMP JUMPDEST SWAP2 POP DUP3 PUSH1 0x2 MUL DUP3 OR SWAP1 POP SWAP3 SWAP2 POP POP JUMP JUMPDEST PUSH2 0xFA3 DUP3 PUSH2 0x6CA JUMP JUMPDEST PUSH8 0xFFFFFFFFFFFFFFFF DUP2 GT ISZERO PUSH2 0xFBC JUMPI PUSH2 0xFBB PUSH2 0x8C4 JUMP JUMPDEST JUMPDEST PUSH2 0xFC6 DUP3 SLOAD PUSH2 0xBF1 JUMP JUMPDEST PUSH2 0xFD1 DUP3 DUP3 DUP6 PUSH2 0xF0D JUMP JUMPDEST PUSH1 0x0 PUSH1 0x20 SWAP1 POP PUSH1 0x1F DUP4 GT PUSH1 0x1 DUP2 EQ PUSH2 0x1004 JUMPI PUSH1 0x0 DUP5 ISZERO PUSH2 0xFF2 JUMPI DUP3 DUP8 ADD MLOAD SWAP1 POP JUMPDEST PUSH2 0xFFC DUP6 DUP3 PUSH2 0xF7E JUMP JUMPDEST DUP7 SSTORE POP PUSH2 0x1064 JUMP JUMPDEST PUSH1 0x1F NOT DUP5 AND PUSH2 0x1012 DUP7 PUSH2 0xDEE JUMP JUMPDEST PUSH1 0x0 JUMPDEST DUP3 DUP2 LT ISZERO PUSH2 0x103A JUMPI DUP5 DUP10 ADD MLOAD DUP3 SSTORE PUSH1 0x1 DUP3 ADD SWAP2 POP PUSH1 0x20 DUP6 ADD SWAP5 POP PUSH1 0x20 DUP2 ADD SWAP1 POP PUSH2 0x1015 JUMP JUMPDEST DUP7 DUP4 LT ISZERO PUSH2 0x1057 JUMPI DUP5 DUP10 ADD MLOAD PUSH2 0x1053 PUSH1 0x1F DUP10 AND DUP3 PUSH2 0xF60 JUMP JUMPDEST DUP4 SSTORE POP JUMPDEST PUSH1 0x1 PUSH1 0x2 DUP9 MUL ADD DUP9 SSTORE POP POP POP JUMPDEST POP POP POP POP POP POP JUMP INVALID LOG2 PUSH5 0x6970667358 0x22 SLT KECCAK256 SWAP3 MUL 0xC9 SLT 0x2F PUSH31 0xB938A8BDF38217C12EFA9956A45BC4DE97830152AECC6B10ADB964736F6C63 NUMBER STOP ADDMOD SGT STOP CALLER "
				},
				"gasEstimates": {
					"creation": {
						"codeDepositCost": "851600",
						"executionCost": "25156",
						"totalCost": "876756"
					},
					"external": {
						"bookCount()": "2451",
						"createBook(string,string,uint256)": "infinite",
						"getBook(uint256)": "infinite",
						"getBooks()": "infinite",
						"owner()": "2489"
					}
				},
				"methodIdentifiers": {
					"bookCount()": "b905ad78",
					"createBook(string,string,uint256)": "ce9d915a",
					"getBook(uint256)": "e0ff5b8b",
					"getBooks()": "9f349789",
					"owner()": "8da5cb5b"
				}
			},
			"storageLayout": {
				"storage": [
					{
						"astId": 3,
						"contract": "test.sol:Test",
						"label": "owner",
						"offset": 0,
						"slot": "0",
						"type": "t_address"
					},
					{
						"astId": 5,
						"contract": "test.sol:Test",
						"label": "bookCount",
						"offset": 0,
						"slot": "1",
						"type": "t_uint256"
					},
					{
						"astId": 19,
						"contract": "test.sol:Test",
						"label": "books",
						"offset": 0,
						"slot": "2",
						"type": "t_mapping(t_uint256,t_struct(StoreString)28_storage)"
					}
				],
				"types": {
					"t_address": {
						"encoding": "inplace",
						"label": "address",
						"numberOfBytes": "20"
					},
					"t_mapping(t_uint256,t_struct(StoreString)28_storage)": {
						"encoding": "mapping",
						"key": "t_uint256",
						"label": "mapping(uint256 => struct Test.StoreString)",
						"numberOfBytes": "32",
						"value": "t_struct(StoreString)28_storage"
					},
					"t_string_storage": {
						"encoding": "bytes",
						"label": "string",
						"numberOfBytes": "32"
					},
					"t_struct(StoreString)28_storage": {
						"encoding": "inplace",
						"label": "struct Test.StoreString",
						"members": [
							{
								"astId": 21,
								"contract": "test.sol:Test",
								"label": "id",
								"offset": 0,
								"slot": "0",
								"type": "t_uint256"
							},
							{
								"astId": 23,
								"contract": "test.sol:Test",
								"label": "name",
								"offset": 0,
								"slot": "1",
								"type": "t_string_storage"
							},
							{
								"astId": 25,
								"contract": "test.sol:Test",
								"label": "description",
								"offset": 0,
								"slot": "2",
								"type": "t_string_storage"
							},
							{
								"astId": 27,
								"contract": "test.sol:Test",
								"label": "price",
								"offset": 0,
								"slot": "3",
								"type": "t_uint256"
							}
						],
						"numberOfBytes": "128"
					},
					"t_uint256": {
						"encoding": "inplace",
						"label": "uint256",
						"numberOfBytes": "32"
					}
				}
			},
			"userdoc": {
				"kind": "user",
				"methods": {},
				"version": 1
			}
		}
	}
}